{
  "_format": "hh-sol-artifact-1",
  "contractName": "GalaxyBridge",
  "sourceName": "contracts/zkEVM_NFT_contract_example.sol",
  "abi": [
    {
      "inputs": [
        {
          "internalType": "address",
          "name": "_bridgeContractPolygon",
          "type": "address"
        },
        {
          "internalType": "address",
          "name": "_sisterContract",
          "type": "address"
        },
        {
          "internalType": "address",
          "name": "_bridgeContractGalaxyBridge",
          "type": "address"
        }
      ],
      "stateMutability": "nonpayable",
      "type": "constructor"
    },
    {
      "anonymous": false,
      "inputs": [
        {
          "indexed": true,
          "internalType": "address",
          "name": "owner",
          "type": "address"
        },
        {
          "indexed": true,
          "internalType": "address",
          "name": "approved",
          "type": "address"
        },
        {
          "indexed": true,
          "internalType": "uint256",
          "name": "tokenId",
          "type": "uint256"
        }
      ],
      "name": "Approval",
      "type": "event"
    },
    {
      "anonymous": false,
      "inputs": [
        {
          "indexed": true,
          "internalType": "address",
          "name": "owner",
          "type": "address"
        },
        {
          "indexed": true,
          "internalType": "address",
          "name": "operator",
          "type": "address"
        },
        {
          "indexed": false,
          "internalType": "bool",
          "name": "approved",
          "type": "bool"
        }
      ],
      "name": "ApprovalForAll",
      "type": "event"
    },
    {
      "anonymous": false,
      "inputs": [
        {
          "indexed": true,
          "internalType": "address",
          "name": "previousOwner",
          "type": "address"
        },
        {
          "indexed": true,
          "internalType": "address",
          "name": "newOwner",
          "type": "address"
        }
      ],
      "name": "OwnershipTransferred",
      "type": "event"
    },
    {
      "anonymous": false,
      "inputs": [
        {
          "indexed": true,
          "internalType": "address",
          "name": "from",
          "type": "address"
        },
        {
          "indexed": true,
          "internalType": "address",
          "name": "to",
          "type": "address"
        },
        {
          "indexed": true,
          "internalType": "uint256",
          "name": "tokenId",
          "type": "uint256"
        }
      ],
      "name": "Transfer",
      "type": "event"
    },
    {
      "inputs": [
        {
          "internalType": "address",
          "name": "to",
          "type": "address"
        },
        {
          "internalType": "uint256",
          "name": "tokenId",
          "type": "uint256"
        }
      ],
      "name": "approve",
      "outputs": [],
      "stateMutability": "nonpayable",
      "type": "function"
    },
    {
      "inputs": [
        {
          "internalType": "address",
          "name": "owner",
          "type": "address"
        }
      ],
      "name": "balanceOf",
      "outputs": [
        {
          "internalType": "uint256",
          "name": "",
          "type": "uint256"
        }
      ],
      "stateMutability": "view",
      "type": "function"
    },
    {
      "inputs": [
        {
          "internalType": "bytes",
          "name": "input",
          "type": "bytes"
        }
      ],
      "name": "castBytesToBytes32",
      "outputs": [
        {
          "internalType": "bytes32",
          "name": "output",
          "type": "bytes32"
        }
      ],
      "stateMutability": "pure",
      "type": "function"
    },
    {
      "inputs": [
        {
          "internalType": "address",
          "name": "_bridgeContractPolygon",
          "type": "address"
        },
        {
          "internalType": "address",
          "name": "_sisterContract",
          "type": "address"
        },
        {
          "internalType": "address",
          "name": "_bridgeContractGalaxyBridge",
          "type": "address"
        }
      ],
      "name": "changeBridgeContract",
      "outputs": [],
      "stateMutability": "nonpayable",
      "type": "function"
    },
    {
      "inputs": [
        {
          "internalType": "bytes32",
          "name": "encodedMessageNFTBridge",
          "type": "bytes32"
        }
      ],
      "name": "decodeMessagePayload",
      "outputs": [
        {
          "internalType": "address",
          "name": "",
          "type": "address"
        },
        {
          "internalType": "address",
          "name": "",
          "type": "address"
        },
        {
          "internalType": "uint256",
          "name": "",
          "type": "uint256"
        }
      ],
      "stateMutability": "pure",
      "type": "function"
    },
    {
      "inputs": [
        {
          "internalType": "uint256",
          "name": "tokenId",
          "type": "uint256"
        }
      ],
      "name": "getApproved",
      "outputs": [
        {
          "internalType": "address",
          "name": "",
          "type": "address"
        }
      ],
      "stateMutability": "view",
      "type": "function"
    },
    {
      "inputs": [
        {
          "internalType": "address",
          "name": "owner",
          "type": "address"
        },
        {
          "internalType": "address",
          "name": "operator",
          "type": "address"
        }
      ],
      "name": "isApprovedForAll",
      "outputs": [
        {
          "internalType": "bool",
          "name": "",
          "type": "bool"
        }
      ],
      "stateMutability": "view",
      "type": "function"
    },
    {
      "inputs": [],
      "name": "name",
      "outputs": [
        {
          "internalType": "string",
          "name": "",
          "type": "string"
        }
      ],
      "stateMutability": "view",
      "type": "function"
    },
    {
      "inputs": [
        {
          "internalType": "address",
          "name": "originAddress",
          "type": "address"
        },
        {
          "internalType": "uint32",
          "name": "originNetwork",
          "type": "uint32"
        },
        {
          "internalType": "bytes",
          "name": "data",
          "type": "bytes"
        }
      ],
      "name": "onMessageReceived",
      "outputs": [],
      "stateMutability": "payable",
      "type": "function"
    },
    {
      "inputs": [],
      "name": "owner",
      "outputs": [
        {
          "internalType": "address",
          "name": "",
          "type": "address"
        }
      ],
      "stateMutability": "view",
      "type": "function"
    },
    {
      "inputs": [
        {
          "internalType": "uint256",
          "name": "tokenId",
          "type": "uint256"
        }
      ],
      "name": "ownerOf",
      "outputs": [
        {
          "internalType": "address",
          "name": "",
          "type": "address"
        }
      ],
      "stateMutability": "view",
      "type": "function"
    },
    {
      "inputs": [],
      "name": "renounceOwnership",
      "outputs": [],
      "stateMutability": "nonpayable",
      "type": "function"
    },
    {
      "inputs": [
        {
          "internalType": "address",
          "name": "to",
          "type": "address"
        },
        {
          "internalType": "string",
          "name": "uri",
          "type": "string"
        }
      ],
      "name": "safeMint",
      "outputs": [],
      "stateMutability": "nonpayable",
      "type": "function"
    },
    {
      "inputs": [
        {
          "internalType": "address",
          "name": "from",
          "type": "address"
        },
        {
          "internalType": "address",
          "name": "to",
          "type": "address"
        },
        {
          "internalType": "uint256",
          "name": "tokenId",
          "type": "uint256"
        }
      ],
      "name": "safeTransferFrom",
      "outputs": [],
      "stateMutability": "nonpayable",
      "type": "function"
    },
    {
      "inputs": [
        {
          "internalType": "address",
          "name": "from",
          "type": "address"
        },
        {
          "internalType": "address",
          "name": "to",
          "type": "address"
        },
        {
          "internalType": "uint256",
          "name": "tokenId",
          "type": "uint256"
        },
        {
          "internalType": "bytes",
          "name": "data",
          "type": "bytes"
        }
      ],
      "name": "safeTransferFrom",
      "outputs": [],
      "stateMutability": "nonpayable",
      "type": "function"
    },
    {
      "inputs": [
        {
          "internalType": "address",
          "name": "operator",
          "type": "address"
        },
        {
          "internalType": "bool",
          "name": "approved",
          "type": "bool"
        }
      ],
      "name": "setApprovalForAll",
      "outputs": [],
      "stateMutability": "nonpayable",
      "type": "function"
    },
    {
      "inputs": [
        {
          "internalType": "bytes4",
          "name": "interfaceId",
          "type": "bytes4"
        }
      ],
      "name": "supportsInterface",
      "outputs": [
        {
          "internalType": "bool",
          "name": "",
          "type": "bool"
        }
      ],
      "stateMutability": "view",
      "type": "function"
    },
    {
      "inputs": [],
      "name": "symbol",
      "outputs": [
        {
          "internalType": "string",
          "name": "",
          "type": "string"
        }
      ],
      "stateMutability": "view",
      "type": "function"
    },
    {
      "inputs": [
        {
          "internalType": "uint256",
          "name": "tokenId",
          "type": "uint256"
        }
      ],
      "name": "tokenURI",
      "outputs": [
        {
          "internalType": "string",
          "name": "",
          "type": "string"
        }
      ],
      "stateMutability": "view",
      "type": "function"
    },
    {
      "inputs": [
        {
          "internalType": "address",
          "name": "from",
          "type": "address"
        },
        {
          "internalType": "address",
          "name": "to",
          "type": "address"
        },
        {
          "internalType": "uint256",
          "name": "tokenId",
          "type": "uint256"
        }
      ],
      "name": "transferFrom",
      "outputs": [],
      "stateMutability": "nonpayable",
      "type": "function"
    },
    {
      "inputs": [
        {
          "internalType": "address",
          "name": "newOwner",
          "type": "address"
        }
      ],
      "name": "transferOwnership",
      "outputs": [],
      "stateMutability": "nonpayable",
      "type": "function"
    }
  ],
  "bytecode": "0x60806040523480156200001157600080fd5b5060405162003abd38038062003abd8339818101604052810190620000379190620003ab565b6040518060400160405280600c81526020017f67616c61787942726964676500000000000000000000000000000000000000008152506040518060400160405280600681526020017f42524944474500000000000000000000000000000000000000000000000000008152508160009080519060200190620000bb92919062000291565b508060019080519060200190620000d492919062000291565b505050620000f7620000eb620001c360201b60201c565b620001cb60201b60201c565b82600a60006101000a81548173ffffffffffffffffffffffffffffffffffffffff021916908373ffffffffffffffffffffffffffffffffffffffff16021790555080600c60006101000a81548173ffffffffffffffffffffffffffffffffffffffff021916908373ffffffffffffffffffffffffffffffffffffffff16021790555081600b60006101000a81548173ffffffffffffffffffffffffffffffffffffffff021916908373ffffffffffffffffffffffffffffffffffffffff1602179055505050506200046c565b600033905090565b6000600760009054906101000a900473ffffffffffffffffffffffffffffffffffffffff16905081600760006101000a81548173ffffffffffffffffffffffffffffffffffffffff021916908373ffffffffffffffffffffffffffffffffffffffff1602179055508173ffffffffffffffffffffffffffffffffffffffff168173ffffffffffffffffffffffffffffffffffffffff167f8be0079c531659141344cd1fd0a4f28419497f9722a3daafe3b4186f6b6457e060405160405180910390a35050565b8280546200029f9062000436565b90600052602060002090601f016020900481019282620002c357600085556200030f565b82601f10620002de57805160ff19168380011785556200030f565b828001600101855582156200030f579182015b828111156200030e578251825591602001919060010190620002f1565b5b5090506200031e919062000322565b5090565b5b808211156200033d57600081600090555060010162000323565b5090565b600080fd5b600073ffffffffffffffffffffffffffffffffffffffff82169050919050565b6000620003738262000346565b9050919050565b620003858162000366565b81146200039157600080fd5b50565b600081519050620003a5816200037a565b92915050565b600080600060608486031215620003c757620003c662000341565b5b6000620003d78682870162000394565b9350506020620003ea8682870162000394565b9250506040620003fd8682870162000394565b9150509250925092565b7f4e487b7100000000000000000000000000000000000000000000000000000000600052602260045260246000fd5b600060028204905060018216806200044f57607f821691505b6020821081141562000466576200046562000407565b5b50919050565b613641806200047c6000396000f3fe60806040526004361061012a5760003560e01c8063715018a6116100ab578063b88d4fde1161006f578063b88d4fde146103e3578063c87b56dd1461040c578063d204c45e14610449578063e426914e14610472578063e985e9c5146104af578063f2fde38b146104ec5761012a565b8063715018a61461032457806389a68f691461033b5780638da5cb5b1461036457806395d89b411461038f578063a22cb465146103ba5761012a565b806323b872dd116100f257806323b872dd1461021957806342842e0e146102425780635826a1711461026b5780636352211e146102aa57806370a08231146102e75761012a565b806301ffc9a71461012f57806306fdde031461016c578063081812fc14610197578063095ea7b3146101d45780631806b5f2146101fd575b600080fd5b34801561013b57600080fd5b50610156600480360381019061015191906120ae565b610515565b60405161016391906120f6565b60405180910390f35b34801561017857600080fd5b506101816105f7565b60405161018e91906121aa565b60405180910390f35b3480156101a357600080fd5b506101be60048036038101906101b99190612202565b610689565b6040516101cb9190612270565b60405180910390f35b3480156101e057600080fd5b506101fb60048036038101906101f691906122b7565b6106cf565b005b61021760048036038101906102129190612468565b6107e7565b005b34801561022557600080fd5b50610240600480360381019061023b91906124d7565b6109bb565b005b34801561024e57600080fd5b50610269600480360381019061026491906124d7565b610a1b565b005b34801561027757600080fd5b50610292600480360381019061028d9190612560565b610a3b565b6040516102a19392919061259c565b60405180910390f35b3480156102b657600080fd5b506102d160048036038101906102cc9190612202565b610a7c565b6040516102de9190612270565b60405180910390f35b3480156102f357600080fd5b5061030e600480360381019061030991906125d3565b610b03565b60405161031b9190612600565b60405180910390f35b34801561033057600080fd5b50610339610bbb565b005b34801561034757600080fd5b50610362600480360381019061035d919061261b565b610bcf565b005b34801561037057600080fd5b50610379610c9f565b6040516103869190612270565b60405180910390f35b34801561039b57600080fd5b506103a4610cc9565b6040516103b191906121aa565b60405180910390f35b3480156103c657600080fd5b506103e160048036038101906103dc919061269a565b610d5b565b005b3480156103ef57600080fd5b5061040a600480360381019061040591906126da565b610d71565b005b34801561041857600080fd5b50610433600480360381019061042e9190612202565b610dd3565b60405161044091906121aa565b60405180910390f35b34801561045557600080fd5b50610470600480360381019061046b91906127fe565b610e4c565b005b34801561047e57600080fd5b506104996004803603810190610494919061285a565b610e85565b6040516104a691906128b2565b60405180910390f35b3480156104bb57600080fd5b506104d660048036038101906104d191906128cd565b610ed7565b6040516104e391906120f6565b60405180910390f35b3480156104f857600080fd5b50610513600480360381019061050e91906125d3565b610f6b565b005b60007f80ac58cd000000000000000000000000000000000000000000000000000000007bffffffffffffffffffffffffffffffffffffffffffffffffffffffff1916827bffffffffffffffffffffffffffffffffffffffffffffffffffffffff191614806105e057507f5b5e139f000000000000000000000000000000000000000000000000000000007bffffffffffffffffffffffffffffffffffffffffffffffffffffffff1916827bffffffffffffffffffffffffffffffffffffffffffffffffffffffff1916145b806105f057506105ef82610fef565b5b9050919050565b6060600080546106069061293c565b80601f01602080910402602001604051908101604052809291908181526020018280546106329061293c565b801561067f5780601f106106545761010080835404028352916020019161067f565b820191906000526020600020905b81548152906001019060200180831161066257829003601f168201915b5050505050905090565b600061069482611059565b6004600083815260200190815260200160002060009054906101000a900473ffffffffffffffffffffffffffffffffffffffff169050919050565b60006106da82610a7c565b90508073ffffffffffffffffffffffffffffffffffffffff168373ffffffffffffffffffffffffffffffffffffffff16141561074b576040517f08c379a0000000000000000000000000000000000000000000000000000000008152600401610742906129e0565b60405180910390fd5b8073ffffffffffffffffffffffffffffffffffffffff1661076a6110a4565b73ffffffffffffffffffffffffffffffffffffffff1614806107995750610798816107936110a4565b610ed7565b5b6107d8576040517f08c379a00000000000000000000000000000000000000000000000000000000081526004016107cf90612a72565b60405180910390fd5b6107e283836110ac565b505050565b600a60009054906101000a900473ffffffffffffffffffffffffffffffffffffffff1673ffffffffffffffffffffffffffffffffffffffff163373ffffffffffffffffffffffffffffffffffffffff1614610877576040517f08c379a000000000000000000000000000000000000000000000000000000000815260040161086e90612b2a565b60405180910390fd5b600c60009054906101000a900473ffffffffffffffffffffffffffffffffffffffff1673ffffffffffffffffffffffffffffffffffffffff168373ffffffffffffffffffffffffffffffffffffffff1614610907576040517f08c379a00000000000000000000000000000000000000000000000000000000081526004016108fe90612bbc565b60405180910390fd5b600080600061091d61091885610e85565b610a3b565b925092509250600b60009054906101000a900473ffffffffffffffffffffffffffffffffffffffff1673ffffffffffffffffffffffffffffffffffffffff168273ffffffffffffffffffffffffffffffffffffffff16146109b3576040517f08c379a00000000000000000000000000000000000000000000000000000000081526004016109aa90612c4e565b60405180910390fd5b505050505050565b6109cc6109c66110a4565b82611165565b610a0b576040517f08c379a0000000000000000000000000000000000000000000000000000000008152600401610a0290612ce0565b60405180910390fd5b610a168383836111fa565b505050565b610a3683838360405180602001604052806000815250610d71565b505050565b60008060008060608560001c901c9050600060c060a08760001c901b901c9050600063ffffffff8760001c1690508282829550955095505050509193909250565b600080610a88836114f4565b9050600073ffffffffffffffffffffffffffffffffffffffff168173ffffffffffffffffffffffffffffffffffffffff161415610afa576040517f08c379a0000000000000000000000000000000000000000000000000000000008152600401610af190612d4c565b60405180910390fd5b80915050919050565b60008073ffffffffffffffffffffffffffffffffffffffff168273ffffffffffffffffffffffffffffffffffffffff161415610b74576040517f08c379a0000000000000000000000000000000000000000000000000000000008152600401610b6b90612dde565b60405180910390fd5b600360008373ffffffffffffffffffffffffffffffffffffffff1673ffffffffffffffffffffffffffffffffffffffff168152602001908152602001600020549050919050565b610bc3611531565b610bcd60006115af565b565b610bd7611531565b82600a60006101000a81548173ffffffffffffffffffffffffffffffffffffffff021916908373ffffffffffffffffffffffffffffffffffffffff16021790555080600c60006101000a81548173ffffffffffffffffffffffffffffffffffffffff021916908373ffffffffffffffffffffffffffffffffffffffff16021790555081600b60006101000a81548173ffffffffffffffffffffffffffffffffffffffff021916908373ffffffffffffffffffffffffffffffffffffffff160217905550505050565b6000600760009054906101000a900473ffffffffffffffffffffffffffffffffffffffff16905090565b606060018054610cd89061293c565b80601f0160208091040260200160405190810160405280929190818152602001828054610d049061293c565b8015610d515780601f10610d2657610100808354040283529160200191610d51565b820191906000526020600020905b815481529060010190602001808311610d3457829003601f168201915b5050505050905090565b610d6d610d666110a4565b8383611675565b5050565b610d82610d7c6110a4565b83611165565b610dc1576040517f08c379a0000000000000000000000000000000000000000000000000000000008152600401610db890612ce0565b60405180910390fd5b610dcd848484846117e2565b50505050565b6060610dde8261183e565b610e1d576040517f08c379a0000000000000000000000000000000000000000000000000000000008152600401610e1490612e70565b60405180910390fd5b610e268261187f565b604051602001610e369190612fd6565b6040516020818303038152906040529050919050565b610e54611531565b6000610e606008611957565b9050610e6c6008611965565b610e76838261197b565b610e808183611999565b505050565b60006020825114610ecb576040517f08c379a0000000000000000000000000000000000000000000000000000000008152600401610ec29061304f565b60405180910390fd5b60208201519050919050565b6000600560008473ffffffffffffffffffffffffffffffffffffffff1673ffffffffffffffffffffffffffffffffffffffff16815260200190815260200160002060008373ffffffffffffffffffffffffffffffffffffffff1673ffffffffffffffffffffffffffffffffffffffff16815260200190815260200160002060009054906101000a900460ff16905092915050565b610f73611531565b600073ffffffffffffffffffffffffffffffffffffffff168173ffffffffffffffffffffffffffffffffffffffff161415610fe3576040517f08c379a0000000000000000000000000000000000000000000000000000000008152600401610fda906130e1565b60405180910390fd5b610fec816115af565b50565b60007f01ffc9a7000000000000000000000000000000000000000000000000000000007bffffffffffffffffffffffffffffffffffffffffffffffffffffffff1916827bffffffffffffffffffffffffffffffffffffffffffffffffffffffff1916149050919050565b6110628161183e565b6110a1576040517f08c379a000000000000000000000000000000000000000000000000000000000815260040161109890612d4c565b60405180910390fd5b50565b600033905090565b816004600083815260200190815260200160002060006101000a81548173ffffffffffffffffffffffffffffffffffffffff021916908373ffffffffffffffffffffffffffffffffffffffff160217905550808273ffffffffffffffffffffffffffffffffffffffff1661111f83610a7c565b73ffffffffffffffffffffffffffffffffffffffff167f8c5be1e5ebec7d5bd14f71427d1e84f3dd0314c0f7b2291e5b200ac8c7c3b92560405160405180910390a45050565b60008061117183610a7c565b90508073ffffffffffffffffffffffffffffffffffffffff168473ffffffffffffffffffffffffffffffffffffffff1614806111b357506111b28185610ed7565b5b806111f157508373ffffffffffffffffffffffffffffffffffffffff166111d984610689565b73ffffffffffffffffffffffffffffffffffffffff16145b91505092915050565b8273ffffffffffffffffffffffffffffffffffffffff1661121a82610a7c565b73ffffffffffffffffffffffffffffffffffffffff1614611270576040517f08c379a000000000000000000000000000000000000000000000000000000000815260040161126790613173565b60405180910390fd5b600073ffffffffffffffffffffffffffffffffffffffff168273ffffffffffffffffffffffffffffffffffffffff1614156112e0576040517f08c379a00000000000000000000000000000000000000000000000000000000081526004016112d790613205565b60405180910390fd5b6112ed8383836001611a0d565b8273ffffffffffffffffffffffffffffffffffffffff1661130d82610a7c565b73ffffffffffffffffffffffffffffffffffffffff1614611363576040517f08c379a000000000000000000000000000000000000000000000000000000000815260040161135a90613173565b60405180910390fd5b6004600082815260200190815260200160002060006101000a81549073ffffffffffffffffffffffffffffffffffffffff02191690556001600360008573ffffffffffffffffffffffffffffffffffffffff1673ffffffffffffffffffffffffffffffffffffffff168152602001908152602001600020600082825403925050819055506001600360008473ffffffffffffffffffffffffffffffffffffffff1673ffffffffffffffffffffffffffffffffffffffff16815260200190815260200160002060008282540192505081905550816002600083815260200190815260200160002060006101000a81548173ffffffffffffffffffffffffffffffffffffffff021916908373ffffffffffffffffffffffffffffffffffffffff160217905550808273ffffffffffffffffffffffffffffffffffffffff168473ffffffffffffffffffffffffffffffffffffffff167fddf252ad1be2c89b69c2b068fc378daa952ba7f163c4a11628f55a4df523b3ef60405160405180910390a46114ef8383836001611a13565b505050565b60006002600083815260200190815260200160002060009054906101000a900473ffffffffffffffffffffffffffffffffffffffff169050919050565b6115396110a4565b73ffffffffffffffffffffffffffffffffffffffff16611557610c9f565b73ffffffffffffffffffffffffffffffffffffffff16146115ad576040517f08c379a00000000000000000000000000000000000000000000000000000000081526004016115a490613271565b60405180910390fd5b565b6000600760009054906101000a900473ffffffffffffffffffffffffffffffffffffffff16905081600760006101000a81548173ffffffffffffffffffffffffffffffffffffffff021916908373ffffffffffffffffffffffffffffffffffffffff1602179055508173ffffffffffffffffffffffffffffffffffffffff168173ffffffffffffffffffffffffffffffffffffffff167f8be0079c531659141344cd1fd0a4f28419497f9722a3daafe3b4186f6b6457e060405160405180910390a35050565b8173ffffffffffffffffffffffffffffffffffffffff168373ffffffffffffffffffffffffffffffffffffffff1614156116e4576040517f08c379a00000000000000000000000000000000000000000000000000000000081526004016116db906132dd565b60405180910390fd5b80600560008573ffffffffffffffffffffffffffffffffffffffff1673ffffffffffffffffffffffffffffffffffffffff16815260200190815260200160002060008473ffffffffffffffffffffffffffffffffffffffff1673ffffffffffffffffffffffffffffffffffffffff16815260200190815260200160002060006101000a81548160ff0219169083151502179055508173ffffffffffffffffffffffffffffffffffffffff168373ffffffffffffffffffffffffffffffffffffffff167f17307eab39ab6107e8899845ad3d59bd9653f200f220920489ca2b5937696c31836040516117d591906120f6565b60405180910390a3505050565b6117ed8484846111fa565b6117f984848484611a19565b611838576040517f08c379a000000000000000000000000000000000000000000000000000000000815260040161182f9061336f565b60405180910390fd5b50505050565b60008073ffffffffffffffffffffffffffffffffffffffff16611860836114f4565b73ffffffffffffffffffffffffffffffffffffffff1614159050919050565b60606000600161188e84611bb0565b01905060008167ffffffffffffffff8111156118ad576118ac61233d565b5b6040519080825280601f01601f1916602001820160405280156118df5781602001600182028036833780820191505090505b509050600082602001820190505b60011561194c578080600190039150507f3031323334353637383961626364656600000000000000000000000000000000600a86061a8153600a85816119365761193561338f565b5b04945060008514156119475761194c565b6118ed565b819350505050919050565b600081600001549050919050565b6001816000016000828254019250508190555050565b611995828260405180602001604052806000815250611d03565b5050565b6119a28261183e565b6119e1576040517f08c379a00000000000000000000000000000000000000000000000000000000081526004016119d890613430565b60405180910390fd5b80600960008481526020019081526020016000209080519060200190611a08929190611f9f565b505050565b50505050565b50505050565b6000611a3a8473ffffffffffffffffffffffffffffffffffffffff16611d5e565b15611ba3578373ffffffffffffffffffffffffffffffffffffffff1663150b7a02611a636110a4565b8786866040518563ffffffff1660e01b8152600401611a8594939291906134a5565b602060405180830381600087803b158015611a9f57600080fd5b505af1925050508015611ad057506040513d601f19601f82011682018060405250810190611acd9190613506565b60015b611b53573d8060008114611b00576040519150601f19603f3d011682016040523d82523d6000602084013e611b05565b606091505b50600081511415611b4b576040517f08c379a0000000000000000000000000000000000000000000000000000000008152600401611b429061336f565b60405180910390fd5b805181602001fd5b63150b7a0260e01b7bffffffffffffffffffffffffffffffffffffffffffffffffffffffff1916817bffffffffffffffffffffffffffffffffffffffffffffffffffffffff191614915050611ba8565b600190505b949350505050565b600080600090507a184f03e93ff9f4daa797ed6e38ed64bf6a1f0100000000000000008310611c0e577a184f03e93ff9f4daa797ed6e38ed64bf6a1f0100000000000000008381611c0457611c0361338f565b5b0492506040810190505b6d04ee2d6d415b85acef81000000008310611c4b576d04ee2d6d415b85acef81000000008381611c4157611c4061338f565b5b0492506020810190505b662386f26fc100008310611c7a57662386f26fc100008381611c7057611c6f61338f565b5b0492506010810190505b6305f5e1008310611ca3576305f5e1008381611c9957611c9861338f565b5b0492506008810190505b6127108310611cc8576127108381611cbe57611cbd61338f565b5b0492506004810190505b60648310611ceb5760648381611ce157611ce061338f565b5b0492506002810190505b600a8310611cfa576001810190505b80915050919050565b611d0d8383611d81565b611d1a6000848484611a19565b611d59576040517f08c379a0000000000000000000000000000000000000000000000000000000008152600401611d509061336f565b60405180910390fd5b505050565b6000808273ffffffffffffffffffffffffffffffffffffffff163b119050919050565b600073ffffffffffffffffffffffffffffffffffffffff168273ffffffffffffffffffffffffffffffffffffffff161415611df1576040517f08c379a0000000000000000000000000000000000000000000000000000000008152600401611de89061357f565b60405180910390fd5b611dfa8161183e565b15611e3a576040517f08c379a0000000000000000000000000000000000000000000000000000000008152600401611e31906135eb565b60405180910390fd5b611e48600083836001611a0d565b611e518161183e565b15611e91576040517f08c379a0000000000000000000000000000000000000000000000000000000008152600401611e88906135eb565b60405180910390fd5b6001600360008473ffffffffffffffffffffffffffffffffffffffff1673ffffffffffffffffffffffffffffffffffffffff16815260200190815260200160002060008282540192505081905550816002600083815260200190815260200160002060006101000a81548173ffffffffffffffffffffffffffffffffffffffff021916908373ffffffffffffffffffffffffffffffffffffffff160217905550808273ffffffffffffffffffffffffffffffffffffffff16600073ffffffffffffffffffffffffffffffffffffffff167fddf252ad1be2c89b69c2b068fc378daa952ba7f163c4a11628f55a4df523b3ef60405160405180910390a4611f9b600083836001611a13565b5050565b828054611fab9061293c565b90600052602060002090601f016020900481019282611fcd5760008555612014565b82601f10611fe657805160ff1916838001178555612014565b82800160010185558215612014579182015b82811115612013578251825591602001919060010190611ff8565b5b5090506120219190612025565b5090565b5b8082111561203e576000816000905550600101612026565b5090565b6000604051905090565b600080fd5b600080fd5b60007fffffffff0000000000000000000000000000000000000000000000000000000082169050919050565b61208b81612056565b811461209657600080fd5b50565b6000813590506120a881612082565b92915050565b6000602082840312156120c4576120c361204c565b5b60006120d284828501612099565b91505092915050565b60008115159050919050565b6120f0816120db565b82525050565b600060208201905061210b60008301846120e7565b92915050565b600081519050919050565b600082825260208201905092915050565b60005b8381101561214b578082015181840152602081019050612130565b8381111561215a576000848401525b50505050565b6000601f19601f8301169050919050565b600061217c82612111565b612186818561211c565b935061219681856020860161212d565b61219f81612160565b840191505092915050565b600060208201905081810360008301526121c48184612171565b905092915050565b6000819050919050565b6121df816121cc565b81146121ea57600080fd5b50565b6000813590506121fc816121d6565b92915050565b6000602082840312156122185761221761204c565b5b6000612226848285016121ed565b91505092915050565b600073ffffffffffffffffffffffffffffffffffffffff82169050919050565b600061225a8261222f565b9050919050565b61226a8161224f565b82525050565b60006020820190506122856000830184612261565b92915050565b6122948161224f565b811461229f57600080fd5b50565b6000813590506122b18161228b565b92915050565b600080604083850312156122ce576122cd61204c565b5b60006122dc858286016122a2565b92505060206122ed858286016121ed565b9150509250929050565b600063ffffffff82169050919050565b612310816122f7565b811461231b57600080fd5b50565b60008135905061232d81612307565b92915050565b600080fd5b600080fd5b7f4e487b7100000000000000000000000000000000000000000000000000000000600052604160045260246000fd5b61237582612160565b810181811067ffffffffffffffff821117156123945761239361233d565b5b80604052505050565b60006123a7612042565b90506123b3828261236c565b919050565b600067ffffffffffffffff8211156123d3576123d261233d565b5b6123dc82612160565b9050602081019050919050565b82818337600083830152505050565b600061240b612406846123b8565b61239d565b90508281526020810184848401111561242757612426612338565b5b6124328482856123e9565b509392505050565b600082601f83011261244f5761244e612333565b5b813561245f8482602086016123f8565b91505092915050565b6000806000606084860312156124815761248061204c565b5b600061248f868287016122a2565b93505060206124a08682870161231e565b925050604084013567ffffffffffffffff8111156124c1576124c0612051565b5b6124cd8682870161243a565b9150509250925092565b6000806000606084860312156124f0576124ef61204c565b5b60006124fe868287016122a2565b935050602061250f868287016122a2565b9250506040612520868287016121ed565b9150509250925092565b6000819050919050565b61253d8161252a565b811461254857600080fd5b50565b60008135905061255a81612534565b92915050565b6000602082840312156125765761257561204c565b5b60006125848482850161254b565b91505092915050565b612596816121cc565b82525050565b60006060820190506125b16000830186612261565b6125be6020830185612261565b6125cb604083018461258d565b949350505050565b6000602082840312156125e9576125e861204c565b5b60006125f7848285016122a2565b91505092915050565b6000602082019050612615600083018461258d565b92915050565b6000806000606084860312156126345761263361204c565b5b6000612642868287016122a2565b9350506020612653868287016122a2565b9250506040612664868287016122a2565b9150509250925092565b612677816120db565b811461268257600080fd5b50565b6000813590506126948161266e565b92915050565b600080604083850312156126b1576126b061204c565b5b60006126bf858286016122a2565b92505060206126d085828601612685565b9150509250929050565b600080600080608085870312156126f4576126f361204c565b5b6000612702878288016122a2565b9450506020612713878288016122a2565b9350506040612724878288016121ed565b925050606085013567ffffffffffffffff81111561274557612744612051565b5b6127518782880161243a565b91505092959194509250565b600067ffffffffffffffff8211156127785761277761233d565b5b61278182612160565b9050602081019050919050565b60006127a161279c8461275d565b61239d565b9050828152602081018484840111156127bd576127bc612338565b5b6127c88482856123e9565b509392505050565b600082601f8301126127e5576127e4612333565b5b81356127f584826020860161278e565b91505092915050565b600080604083850312156128155761281461204c565b5b6000612823858286016122a2565b925050602083013567ffffffffffffffff81111561284457612843612051565b5b612850858286016127d0565b9150509250929050565b6000602082840312156128705761286f61204c565b5b600082013567ffffffffffffffff81111561288e5761288d612051565b5b61289a8482850161243a565b91505092915050565b6128ac8161252a565b82525050565b60006020820190506128c760008301846128a3565b92915050565b600080604083850312156128e4576128e361204c565b5b60006128f2858286016122a2565b9250506020612903858286016122a2565b9150509250929050565b7f4e487b7100000000000000000000000000000000000000000000000000000000600052602260045260246000fd5b6000600282049050600182168061295457607f821691505b602082108114156129685761296761290d565b5b50919050565b7f4552433732313a20617070726f76616c20746f2063757272656e74206f776e6560008201527f7200000000000000000000000000000000000000000000000000000000000000602082015250565b60006129ca60218361211c565b91506129d58261296e565b604082019050919050565b600060208201905081810360008301526129f9816129bd565b9050919050565b7f4552433732313a20617070726f76652063616c6c6572206973206e6f7420746f60008201527f6b656e206f776e6572206f7220617070726f76656420666f7220616c6c000000602082015250565b6000612a5c603d8361211c565b9150612a6782612a00565b604082019050919050565b60006020820190508181036000830152612a8b81612a4f565b9050919050565b7f6f6e6c792063616c6c61626c65207669612063726f737320636861696e206d6560008201527f73736167696e672c207075626c69632041504920204067616c6178794272696460208201527f6765200000000000000000000000000000000000000000000000000000000000604082015250565b6000612b1460438361211c565b9150612b1f82612a92565b606082019050919050565b60006020820190508181036000830152612b4381612b07565b9050919050565b7f6d657373616765206973206e6f742066726f6d207468652067616c617879427260008201527f6964676521000000000000000000000000000000000000000000000000000000602082015250565b6000612ba660258361211c565b9150612bb182612b4a565b604082019050919050565b60006020820190508181036000830152612bd581612b99565b9050919050565b7f6d657373616765206973206e6f742066726f6d2074686520736973746572436f60008201527f6e74726163742100000000000000000000000000000000000000000000000000602082015250565b6000612c3860278361211c565b9150612c4382612bdc565b604082019050919050565b60006020820190508181036000830152612c6781612c2b565b9050919050565b7f4552433732313a2063616c6c6572206973206e6f7420746f6b656e206f776e6560008201527f72206f7220617070726f76656400000000000000000000000000000000000000602082015250565b6000612cca602d8361211c565b9150612cd582612c6e565b604082019050919050565b60006020820190508181036000830152612cf981612cbd565b9050919050565b7f4552433732313a20696e76616c696420746f6b656e2049440000000000000000600082015250565b6000612d3660188361211c565b9150612d4182612d00565b602082019050919050565b60006020820190508181036000830152612d6581612d29565b9050919050565b7f4552433732313a2061646472657373207a65726f206973206e6f74206120766160008201527f6c6964206f776e65720000000000000000000000000000000000000000000000602082015250565b6000612dc860298361211c565b9150612dd382612d6c565b604082019050919050565b60006020820190508181036000830152612df781612dbb565b9050919050565b7f45524337323155524953746f726167653a2055524920717565727920666f722060008201527f6e6f6e6578697374656e7420746f6b656e000000000000000000000000000000602082015250565b6000612e5a60318361211c565b9150612e6582612dfe565b604082019050919050565b60006020820190508181036000830152612e8981612e4d565b9050919050565b600081905092915050565b7f7b226e616d65223a20224e465420000000000000000000000000000000000000600082015250565b6000612ed1600e83612e90565b9150612edc82612e9b565b600e82019050919050565b6000612ef282612111565b612efc8185612e90565b9350612f0c81856020860161212d565b80840191505092915050565b7f222c20226465736372697074696f6e223a2022412047616c617879427269646760008201527f65204e465420222c2022696d616765223a202268747470733a2f2f75706c6f6160208201527f642e77696b696d656469612e6f72672f77696b6970656469612f656e2f352f3560408201527f662f4f726967696e616c5f446f67655f6d656d652e6a7067227d000000000000606082015250565b6000612fc0607a83612e90565b9150612fcb82612f18565b607a82019050919050565b6000612fe182612ec4565b9150612fed8284612ee7565b9150612ff882612fb3565b915081905092915050565b7f496e707574206c656e677468206d757374206265203332206279746573000000600082015250565b6000613039601d8361211c565b915061304482613003565b602082019050919050565b600060208201905081810360008301526130688161302c565b9050919050565b7f4f776e61626c653a206e6577206f776e657220697320746865207a65726f206160008201527f6464726573730000000000000000000000000000000000000000000000000000602082015250565b60006130cb60268361211c565b91506130d68261306f565b604082019050919050565b600060208201905081810360008301526130fa816130be565b9050919050565b7f4552433732313a207472616e736665722066726f6d20696e636f72726563742060008201527f6f776e6572000000000000000000000000000000000000000000000000000000602082015250565b600061315d60258361211c565b915061316882613101565b604082019050919050565b6000602082019050818103600083015261318c81613150565b9050919050565b7f4552433732313a207472616e7366657220746f20746865207a65726f2061646460008201527f7265737300000000000000000000000000000000000000000000000000000000602082015250565b60006131ef60248361211c565b91506131fa82613193565b604082019050919050565b6000602082019050818103600083015261321e816131e2565b9050919050565b7f4f776e61626c653a2063616c6c6572206973206e6f7420746865206f776e6572600082015250565b600061325b60208361211c565b915061326682613225565b602082019050919050565b6000602082019050818103600083015261328a8161324e565b9050919050565b7f4552433732313a20617070726f766520746f2063616c6c657200000000000000600082015250565b60006132c760198361211c565b91506132d282613291565b602082019050919050565b600060208201905081810360008301526132f6816132ba565b9050919050565b7f4552433732313a207472616e7366657220746f206e6f6e20455243373231526560008201527f63656976657220696d706c656d656e7465720000000000000000000000000000602082015250565b600061335960328361211c565b9150613364826132fd565b604082019050919050565b600060208201905081810360008301526133888161334c565b9050919050565b7f4e487b7100000000000000000000000000000000000000000000000000000000600052601260045260246000fd5b7f45524337323155524953746f726167653a2055524920736574206f66206e6f6e60008201527f6578697374656e7420746f6b656e000000000000000000000000000000000000602082015250565b600061341a602e8361211c565b9150613425826133be565b604082019050919050565b600060208201905081810360008301526134498161340d565b9050919050565b600081519050919050565b600082825260208201905092915050565b600061347782613450565b613481818561345b565b935061349181856020860161212d565b61349a81612160565b840191505092915050565b60006080820190506134ba6000830187612261565b6134c76020830186612261565b6134d4604083018561258d565b81810360608301526134e6818461346c565b905095945050505050565b60008151905061350081612082565b92915050565b60006020828403121561351c5761351b61204c565b5b600061352a848285016134f1565b91505092915050565b7f4552433732313a206d696e7420746f20746865207a65726f2061646472657373600082015250565b600061356960208361211c565b915061357482613533565b602082019050919050565b600060208201905081810360008301526135988161355c565b9050919050565b7f4552433732313a20746f6b656e20616c7265616479206d696e74656400000000600082015250565b60006135d5601c8361211c565b91506135e08261359f565b602082019050919050565b60006020820190508181036000830152613604816135c8565b905091905056fea26469706673582212208e28244c5550fce4abb0fbdeea308a97064733f18a27fea037cd72c84ba438af64736f6c63430008090033",
  "linkReferences": {},
  "deployedLinkReferences": {}
}