{
  "_format": "hh-sol-artifact-1",
  "contractName": "GalaxyBridge",
  "sourceName": "contracts/zkEVM_NFT_contract_example.sol",
  "abi": [
    {
      "inputs": [
        {
          "internalType": "address",
          "name": "_bridgeContractPolygon",
          "type": "address"
        },
        {
          "internalType": "address",
          "name": "_sisterContract",
          "type": "address"
        }
      ],
      "stateMutability": "nonpayable",
      "type": "constructor"
    },
    {
      "anonymous": false,
      "inputs": [
        {
          "indexed": true,
          "internalType": "address",
          "name": "owner",
          "type": "address"
        },
        {
          "indexed": true,
          "internalType": "address",
          "name": "approved",
          "type": "address"
        },
        {
          "indexed": true,
          "internalType": "uint256",
          "name": "tokenId",
          "type": "uint256"
        }
      ],
      "name": "Approval",
      "type": "event"
    },
    {
      "anonymous": false,
      "inputs": [
        {
          "indexed": true,
          "internalType": "address",
          "name": "owner",
          "type": "address"
        },
        {
          "indexed": true,
          "internalType": "address",
          "name": "operator",
          "type": "address"
        },
        {
          "indexed": false,
          "internalType": "bool",
          "name": "approved",
          "type": "bool"
        }
      ],
      "name": "ApprovalForAll",
      "type": "event"
    },
    {
      "anonymous": false,
      "inputs": [
        {
          "indexed": true,
          "internalType": "address",
          "name": "previousOwner",
          "type": "address"
        },
        {
          "indexed": true,
          "internalType": "address",
          "name": "newOwner",
          "type": "address"
        }
      ],
      "name": "OwnershipTransferred",
      "type": "event"
    },
    {
      "anonymous": false,
      "inputs": [
        {
          "indexed": true,
          "internalType": "address",
          "name": "from",
          "type": "address"
        },
        {
          "indexed": true,
          "internalType": "address",
          "name": "to",
          "type": "address"
        },
        {
          "indexed": true,
          "internalType": "uint256",
          "name": "tokenId",
          "type": "uint256"
        }
      ],
      "name": "Transfer",
      "type": "event"
    },
    {
      "inputs": [
        {
          "internalType": "address",
          "name": "to",
          "type": "address"
        },
        {
          "internalType": "uint256",
          "name": "tokenId",
          "type": "uint256"
        }
      ],
      "name": "approve",
      "outputs": [],
      "stateMutability": "nonpayable",
      "type": "function"
    },
    {
      "inputs": [
        {
          "internalType": "address",
          "name": "owner",
          "type": "address"
        }
      ],
      "name": "balanceOf",
      "outputs": [
        {
          "internalType": "uint256",
          "name": "",
          "type": "uint256"
        }
      ],
      "stateMutability": "view",
      "type": "function"
    },
    {
      "inputs": [
        {
          "internalType": "bytes",
          "name": "input",
          "type": "bytes"
        }
      ],
      "name": "castBytesToBytes32",
      "outputs": [
        {
          "internalType": "bytes32",
          "name": "output",
          "type": "bytes32"
        }
      ],
      "stateMutability": "pure",
      "type": "function"
    },
    {
      "inputs": [
        {
          "internalType": "address",
          "name": "_bridgeContractPolygon",
          "type": "address"
        },
        {
          "internalType": "address",
          "name": "_sisterContract",
          "type": "address"
        }
      ],
      "name": "changeBridgeContract",
      "outputs": [],
      "stateMutability": "nonpayable",
      "type": "function"
    },
    {
      "inputs": [
        {
          "internalType": "bytes32",
          "name": "encodedMessageNFTBridge",
          "type": "bytes32"
        }
      ],
      "name": "decodeMessagePayload",
      "outputs": [
        {
          "internalType": "address",
          "name": "",
          "type": "address"
        },
        {
          "internalType": "address",
          "name": "",
          "type": "address"
        },
        {
          "internalType": "uint256",
          "name": "",
          "type": "uint256"
        }
      ],
      "stateMutability": "pure",
      "type": "function"
    },
    {
      "inputs": [
        {
          "internalType": "uint256",
          "name": "tokenId",
          "type": "uint256"
        }
      ],
      "name": "getApproved",
      "outputs": [
        {
          "internalType": "address",
          "name": "",
          "type": "address"
        }
      ],
      "stateMutability": "view",
      "type": "function"
    },
    {
      "inputs": [
        {
          "internalType": "address",
          "name": "owner",
          "type": "address"
        },
        {
          "internalType": "address",
          "name": "operator",
          "type": "address"
        }
      ],
      "name": "isApprovedForAll",
      "outputs": [
        {
          "internalType": "bool",
          "name": "",
          "type": "bool"
        }
      ],
      "stateMutability": "view",
      "type": "function"
    },
    {
      "inputs": [],
      "name": "name",
      "outputs": [
        {
          "internalType": "string",
          "name": "",
          "type": "string"
        }
      ],
      "stateMutability": "view",
      "type": "function"
    },
    {
      "inputs": [
        {
          "internalType": "address",
          "name": "originAddress",
          "type": "address"
        },
        {
          "internalType": "uint32",
          "name": "originNetwork",
          "type": "uint32"
        },
        {
          "internalType": "bytes",
          "name": "data",
          "type": "bytes"
        }
      ],
      "name": "onMessageReceived",
      "outputs": [],
      "stateMutability": "payable",
      "type": "function"
    },
    {
      "inputs": [],
      "name": "owner",
      "outputs": [
        {
          "internalType": "address",
          "name": "",
          "type": "address"
        }
      ],
      "stateMutability": "view",
      "type": "function"
    },
    {
      "inputs": [
        {
          "internalType": "uint256",
          "name": "tokenId",
          "type": "uint256"
        }
      ],
      "name": "ownerOf",
      "outputs": [
        {
          "internalType": "address",
          "name": "",
          "type": "address"
        }
      ],
      "stateMutability": "view",
      "type": "function"
    },
    {
      "inputs": [],
      "name": "renounceOwnership",
      "outputs": [],
      "stateMutability": "nonpayable",
      "type": "function"
    },
    {
      "inputs": [
        {
          "internalType": "address",
          "name": "to",
          "type": "address"
        },
        {
          "internalType": "string",
          "name": "uri",
          "type": "string"
        }
      ],
      "name": "safeMint",
      "outputs": [],
      "stateMutability": "nonpayable",
      "type": "function"
    },
    {
      "inputs": [
        {
          "internalType": "address",
          "name": "from",
          "type": "address"
        },
        {
          "internalType": "address",
          "name": "to",
          "type": "address"
        },
        {
          "internalType": "uint256",
          "name": "tokenId",
          "type": "uint256"
        }
      ],
      "name": "safeTransferFrom",
      "outputs": [],
      "stateMutability": "nonpayable",
      "type": "function"
    },
    {
      "inputs": [
        {
          "internalType": "address",
          "name": "from",
          "type": "address"
        },
        {
          "internalType": "address",
          "name": "to",
          "type": "address"
        },
        {
          "internalType": "uint256",
          "name": "tokenId",
          "type": "uint256"
        },
        {
          "internalType": "bytes",
          "name": "data",
          "type": "bytes"
        }
      ],
      "name": "safeTransferFrom",
      "outputs": [],
      "stateMutability": "nonpayable",
      "type": "function"
    },
    {
      "inputs": [
        {
          "internalType": "address",
          "name": "operator",
          "type": "address"
        },
        {
          "internalType": "bool",
          "name": "approved",
          "type": "bool"
        }
      ],
      "name": "setApprovalForAll",
      "outputs": [],
      "stateMutability": "nonpayable",
      "type": "function"
    },
    {
      "inputs": [
        {
          "internalType": "bytes4",
          "name": "interfaceId",
          "type": "bytes4"
        }
      ],
      "name": "supportsInterface",
      "outputs": [
        {
          "internalType": "bool",
          "name": "",
          "type": "bool"
        }
      ],
      "stateMutability": "view",
      "type": "function"
    },
    {
      "inputs": [],
      "name": "symbol",
      "outputs": [
        {
          "internalType": "string",
          "name": "",
          "type": "string"
        }
      ],
      "stateMutability": "view",
      "type": "function"
    },
    {
      "inputs": [
        {
          "internalType": "uint256",
          "name": "tokenId",
          "type": "uint256"
        }
      ],
      "name": "tokenURI",
      "outputs": [
        {
          "internalType": "string",
          "name": "",
          "type": "string"
        }
      ],
      "stateMutability": "view",
      "type": "function"
    },
    {
      "inputs": [
        {
          "internalType": "address",
          "name": "from",
          "type": "address"
        },
        {
          "internalType": "address",
          "name": "to",
          "type": "address"
        },
        {
          "internalType": "uint256",
          "name": "tokenId",
          "type": "uint256"
        }
      ],
      "name": "transferFrom",
      "outputs": [],
      "stateMutability": "nonpayable",
      "type": "function"
    },
    {
      "inputs": [
        {
          "internalType": "address",
          "name": "newOwner",
          "type": "address"
        }
      ],
      "name": "transferOwnership",
      "outputs": [],
      "stateMutability": "nonpayable",
      "type": "function"
    }
  ],
  "bytecode": "0x60806040523480156200001157600080fd5b50604051620038af380380620038af833981810160405281019062000037919062000369565b6040518060400160405280600c81526020017f67616c61787942726964676500000000000000000000000000000000000000008152506040518060400160405280600681526020017f42524944474500000000000000000000000000000000000000000000000000008152508160009080519060200190620000bb9291906200024f565b508060019080519060200190620000d49291906200024f565b505050620000f7620000eb6200018160201b60201c565b6200018960201b60201c565b81600a60006101000a81548173ffffffffffffffffffffffffffffffffffffffff021916908373ffffffffffffffffffffffffffffffffffffffff16021790555080600b60006101000a81548173ffffffffffffffffffffffffffffffffffffffff021916908373ffffffffffffffffffffffffffffffffffffffff160217905550505062000415565b600033905090565b6000600760009054906101000a900473ffffffffffffffffffffffffffffffffffffffff16905081600760006101000a81548173ffffffffffffffffffffffffffffffffffffffff021916908373ffffffffffffffffffffffffffffffffffffffff1602179055508173ffffffffffffffffffffffffffffffffffffffff168173ffffffffffffffffffffffffffffffffffffffff167f8be0079c531659141344cd1fd0a4f28419497f9722a3daafe3b4186f6b6457e060405160405180910390a35050565b8280546200025d90620003df565b90600052602060002090601f016020900481019282620002815760008555620002cd565b82601f106200029c57805160ff1916838001178555620002cd565b82800160010185558215620002cd579182015b82811115620002cc578251825591602001919060010190620002af565b5b509050620002dc9190620002e0565b5090565b5b80821115620002fb576000816000905550600101620002e1565b5090565b600080fd5b600073ffffffffffffffffffffffffffffffffffffffff82169050919050565b6000620003318262000304565b9050919050565b620003438162000324565b81146200034f57600080fd5b50565b600081519050620003638162000338565b92915050565b60008060408385031215620003835762000382620002ff565b5b6000620003938582860162000352565b9250506020620003a68582860162000352565b9150509250929050565b7f4e487b7100000000000000000000000000000000000000000000000000000000600052602260045260246000fd5b60006002820490506001821680620003f857607f821691505b602082108114156200040f576200040e620003b0565b5b50919050565b61348a80620004256000396000f3fe60806040526004361061012a5760003560e01c8063715018a6116100ab578063b88d4fde1161006f578063b88d4fde146103e3578063c87b56dd1461040c578063d204c45e14610449578063e426914e14610472578063e985e9c5146104af578063f2fde38b146104ec5761012a565b8063715018a6146103245780638da5cb5b1461033b57806395d89b4114610366578063a22cb46514610391578063b4860fdc146103ba5761012a565b806323b872dd116100f257806323b872dd1461021957806342842e0e146102425780635826a1711461026b5780636352211e146102aa57806370a08231146102e75761012a565b806301ffc9a71461012f57806306fdde031461016c578063081812fc14610197578063095ea7b3146101d45780631806b5f2146101fd575b600080fd5b34801561013b57600080fd5b5061015660048036038101906101519190611fdc565b610515565b6040516101639190612024565b60405180910390f35b34801561017857600080fd5b506101816105f7565b60405161018e91906120d8565b60405180910390f35b3480156101a357600080fd5b506101be60048036038101906101b99190612130565b610689565b6040516101cb919061219e565b60405180910390f35b3480156101e057600080fd5b506101fb60048036038101906101f691906121e5565b6106cf565b005b61021760048036038101906102129190612396565b6107e7565b005b34801561022557600080fd5b50610240600480360381019061023b9190612405565b61092b565b005b34801561024e57600080fd5b5061026960048036038101906102649190612405565b61098b565b005b34801561027757600080fd5b50610292600480360381019061028d919061248e565b6109ab565b6040516102a1939291906124ca565b60405180910390f35b3480156102b657600080fd5b506102d160048036038101906102cc9190612130565b6109ec565b6040516102de919061219e565b60405180910390f35b3480156102f357600080fd5b5061030e60048036038101906103099190612501565b610a73565b60405161031b919061252e565b60405180910390f35b34801561033057600080fd5b50610339610b2b565b005b34801561034757600080fd5b50610350610b3f565b60405161035d919061219e565b60405180910390f35b34801561037257600080fd5b5061037b610b69565b60405161038891906120d8565b60405180910390f35b34801561039d57600080fd5b506103b860048036038101906103b39190612575565b610bfb565b005b3480156103c657600080fd5b506103e160048036038101906103dc91906125b5565b610c11565b005b3480156103ef57600080fd5b5061040a600480360381019061040591906125f5565b610c9f565b005b34801561041857600080fd5b50610433600480360381019061042e9190612130565b610d01565b60405161044091906120d8565b60405180910390f35b34801561045557600080fd5b50610470600480360381019061046b9190612719565b610d7a565b005b34801561047e57600080fd5b5061049960048036038101906104949190612775565b610db3565b6040516104a691906127cd565b60405180910390f35b3480156104bb57600080fd5b506104d660048036038101906104d191906125b5565b610e05565b6040516104e39190612024565b60405180910390f35b3480156104f857600080fd5b50610513600480360381019061050e9190612501565b610e99565b005b60007f80ac58cd000000000000000000000000000000000000000000000000000000007bffffffffffffffffffffffffffffffffffffffffffffffffffffffff1916827bffffffffffffffffffffffffffffffffffffffffffffffffffffffff191614806105e057507f5b5e139f000000000000000000000000000000000000000000000000000000007bffffffffffffffffffffffffffffffffffffffffffffffffffffffff1916827bffffffffffffffffffffffffffffffffffffffffffffffffffffffff1916145b806105f057506105ef82610f1d565b5b9050919050565b60606000805461060690612817565b80601f016020809104026020016040519081016040528092919081815260200182805461063290612817565b801561067f5780601f106106545761010080835404028352916020019161067f565b820191906000526020600020905b81548152906001019060200180831161066257829003601f168201915b5050505050905090565b600061069482610f87565b6004600083815260200190815260200160002060009054906101000a900473ffffffffffffffffffffffffffffffffffffffff169050919050565b60006106da826109ec565b90508073ffffffffffffffffffffffffffffffffffffffff168373ffffffffffffffffffffffffffffffffffffffff16141561074b576040517f08c379a0000000000000000000000000000000000000000000000000000000008152600401610742906128bb565b60405180910390fd5b8073ffffffffffffffffffffffffffffffffffffffff1661076a610fd2565b73ffffffffffffffffffffffffffffffffffffffff161480610799575061079881610793610fd2565b610e05565b5b6107d8576040517f08c379a00000000000000000000000000000000000000000000000000000000081526004016107cf9061294d565b60405180910390fd5b6107e28383610fda565b505050565b600a60009054906101000a900473ffffffffffffffffffffffffffffffffffffffff1673ffffffffffffffffffffffffffffffffffffffff163373ffffffffffffffffffffffffffffffffffffffff1614610877576040517f08c379a000000000000000000000000000000000000000000000000000000000815260040161086e90612a05565b60405180910390fd5b600b60009054906101000a900473ffffffffffffffffffffffffffffffffffffffff1673ffffffffffffffffffffffffffffffffffffffff168373ffffffffffffffffffffffffffffffffffffffff1614610907576040517f08c379a00000000000000000000000000000000000000000000000000000000081526004016108fe90612a97565b60405180910390fd5b600080600061091d61091885610db3565b6109ab565b925092509250505050505050565b61093c610936610fd2565b82611093565b61097b576040517f08c379a000000000000000000000000000000000000000000000000000000000815260040161097290612b29565b60405180910390fd5b610986838383611128565b505050565b6109a683838360405180602001604052806000815250610c9f565b505050565b60008060008060608560001c901c9050600060c060a08760001c901b901c9050600063ffffffff8760001c1690508282829550955095505050509193909250565b6000806109f883611422565b9050600073ffffffffffffffffffffffffffffffffffffffff168173ffffffffffffffffffffffffffffffffffffffff161415610a6a576040517f08c379a0000000000000000000000000000000000000000000000000000000008152600401610a6190612b95565b60405180910390fd5b80915050919050565b60008073ffffffffffffffffffffffffffffffffffffffff168273ffffffffffffffffffffffffffffffffffffffff161415610ae4576040517f08c379a0000000000000000000000000000000000000000000000000000000008152600401610adb90612c27565b60405180910390fd5b600360008373ffffffffffffffffffffffffffffffffffffffff1673ffffffffffffffffffffffffffffffffffffffff168152602001908152602001600020549050919050565b610b3361145f565b610b3d60006114dd565b565b6000600760009054906101000a900473ffffffffffffffffffffffffffffffffffffffff16905090565b606060018054610b7890612817565b80601f0160208091040260200160405190810160405280929190818152602001828054610ba490612817565b8015610bf15780601f10610bc657610100808354040283529160200191610bf1565b820191906000526020600020905b815481529060010190602001808311610bd457829003601f168201915b5050505050905090565b610c0d610c06610fd2565b83836115a3565b5050565b610c1961145f565b81600a60006101000a81548173ffffffffffffffffffffffffffffffffffffffff021916908373ffffffffffffffffffffffffffffffffffffffff16021790555080600b60006101000a81548173ffffffffffffffffffffffffffffffffffffffff021916908373ffffffffffffffffffffffffffffffffffffffff1602179055505050565b610cb0610caa610fd2565b83611093565b610cef576040517f08c379a0000000000000000000000000000000000000000000000000000000008152600401610ce690612b29565b60405180910390fd5b610cfb84848484611710565b50505050565b6060610d0c8261176c565b610d4b576040517f08c379a0000000000000000000000000000000000000000000000000000000008152600401610d4290612cb9565b60405180910390fd5b610d54826117ad565b604051602001610d649190612e1f565b6040516020818303038152906040529050919050565b610d8261145f565b6000610d8e6008611885565b9050610d9a6008611893565b610da483826118a9565b610dae81836118c7565b505050565b60006020825114610df9576040517f08c379a0000000000000000000000000000000000000000000000000000000008152600401610df090612e98565b60405180910390fd5b60208201519050919050565b6000600560008473ffffffffffffffffffffffffffffffffffffffff1673ffffffffffffffffffffffffffffffffffffffff16815260200190815260200160002060008373ffffffffffffffffffffffffffffffffffffffff1673ffffffffffffffffffffffffffffffffffffffff16815260200190815260200160002060009054906101000a900460ff16905092915050565b610ea161145f565b600073ffffffffffffffffffffffffffffffffffffffff168173ffffffffffffffffffffffffffffffffffffffff161415610f11576040517f08c379a0000000000000000000000000000000000000000000000000000000008152600401610f0890612f2a565b60405180910390fd5b610f1a816114dd565b50565b60007f01ffc9a7000000000000000000000000000000000000000000000000000000007bffffffffffffffffffffffffffffffffffffffffffffffffffffffff1916827bffffffffffffffffffffffffffffffffffffffffffffffffffffffff1916149050919050565b610f908161176c565b610fcf576040517f08c379a0000000000000000000000000000000000000000000000000000000008152600401610fc690612b95565b60405180910390fd5b50565b600033905090565b816004600083815260200190815260200160002060006101000a81548173ffffffffffffffffffffffffffffffffffffffff021916908373ffffffffffffffffffffffffffffffffffffffff160217905550808273ffffffffffffffffffffffffffffffffffffffff1661104d836109ec565b73ffffffffffffffffffffffffffffffffffffffff167f8c5be1e5ebec7d5bd14f71427d1e84f3dd0314c0f7b2291e5b200ac8c7c3b92560405160405180910390a45050565b60008061109f836109ec565b90508073ffffffffffffffffffffffffffffffffffffffff168473ffffffffffffffffffffffffffffffffffffffff1614806110e157506110e08185610e05565b5b8061111f57508373ffffffffffffffffffffffffffffffffffffffff1661110784610689565b73ffffffffffffffffffffffffffffffffffffffff16145b91505092915050565b8273ffffffffffffffffffffffffffffffffffffffff16611148826109ec565b73ffffffffffffffffffffffffffffffffffffffff161461119e576040517f08c379a000000000000000000000000000000000000000000000000000000000815260040161119590612fbc565b60405180910390fd5b600073ffffffffffffffffffffffffffffffffffffffff168273ffffffffffffffffffffffffffffffffffffffff16141561120e576040517f08c379a00000000000000000000000000000000000000000000000000000000081526004016112059061304e565b60405180910390fd5b61121b838383600161193b565b8273ffffffffffffffffffffffffffffffffffffffff1661123b826109ec565b73ffffffffffffffffffffffffffffffffffffffff1614611291576040517f08c379a000000000000000000000000000000000000000000000000000000000815260040161128890612fbc565b60405180910390fd5b6004600082815260200190815260200160002060006101000a81549073ffffffffffffffffffffffffffffffffffffffff02191690556001600360008573ffffffffffffffffffffffffffffffffffffffff1673ffffffffffffffffffffffffffffffffffffffff168152602001908152602001600020600082825403925050819055506001600360008473ffffffffffffffffffffffffffffffffffffffff1673ffffffffffffffffffffffffffffffffffffffff16815260200190815260200160002060008282540192505081905550816002600083815260200190815260200160002060006101000a81548173ffffffffffffffffffffffffffffffffffffffff021916908373ffffffffffffffffffffffffffffffffffffffff160217905550808273ffffffffffffffffffffffffffffffffffffffff168473ffffffffffffffffffffffffffffffffffffffff167fddf252ad1be2c89b69c2b068fc378daa952ba7f163c4a11628f55a4df523b3ef60405160405180910390a461141d8383836001611941565b505050565b60006002600083815260200190815260200160002060009054906101000a900473ffffffffffffffffffffffffffffffffffffffff169050919050565b611467610fd2565b73ffffffffffffffffffffffffffffffffffffffff16611485610b3f565b73ffffffffffffffffffffffffffffffffffffffff16146114db576040517f08c379a00000000000000000000000000000000000000000000000000000000081526004016114d2906130ba565b60405180910390fd5b565b6000600760009054906101000a900473ffffffffffffffffffffffffffffffffffffffff16905081600760006101000a81548173ffffffffffffffffffffffffffffffffffffffff021916908373ffffffffffffffffffffffffffffffffffffffff1602179055508173ffffffffffffffffffffffffffffffffffffffff168173ffffffffffffffffffffffffffffffffffffffff167f8be0079c531659141344cd1fd0a4f28419497f9722a3daafe3b4186f6b6457e060405160405180910390a35050565b8173ffffffffffffffffffffffffffffffffffffffff168373ffffffffffffffffffffffffffffffffffffffff161415611612576040517f08c379a000000000000000000000000000000000000000000000000000000000815260040161160990613126565b60405180910390fd5b80600560008573ffffffffffffffffffffffffffffffffffffffff1673ffffffffffffffffffffffffffffffffffffffff16815260200190815260200160002060008473ffffffffffffffffffffffffffffffffffffffff1673ffffffffffffffffffffffffffffffffffffffff16815260200190815260200160002060006101000a81548160ff0219169083151502179055508173ffffffffffffffffffffffffffffffffffffffff168373ffffffffffffffffffffffffffffffffffffffff167f17307eab39ab6107e8899845ad3d59bd9653f200f220920489ca2b5937696c31836040516117039190612024565b60405180910390a3505050565b61171b848484611128565b61172784848484611947565b611766576040517f08c379a000000000000000000000000000000000000000000000000000000000815260040161175d906131b8565b60405180910390fd5b50505050565b60008073ffffffffffffffffffffffffffffffffffffffff1661178e83611422565b73ffffffffffffffffffffffffffffffffffffffff1614159050919050565b6060600060016117bc84611ade565b01905060008167ffffffffffffffff8111156117db576117da61226b565b5b6040519080825280601f01601f19166020018201604052801561180d5781602001600182028036833780820191505090505b509050600082602001820190505b60011561187a578080600190039150507f3031323334353637383961626364656600000000000000000000000000000000600a86061a8153600a8581611864576118636131d8565b5b04945060008514156118755761187a565b61181b565b819350505050919050565b600081600001549050919050565b6001816000016000828254019250508190555050565b6118c3828260405180602001604052806000815250611c31565b5050565b6118d08261176c565b61190f576040517f08c379a000000000000000000000000000000000000000000000000000000000815260040161190690613279565b60405180910390fd5b80600960008481526020019081526020016000209080519060200190611936929190611ecd565b505050565b50505050565b50505050565b60006119688473ffffffffffffffffffffffffffffffffffffffff16611c8c565b15611ad1578373ffffffffffffffffffffffffffffffffffffffff1663150b7a02611991610fd2565b8786866040518563ffffffff1660e01b81526004016119b394939291906132ee565b602060405180830381600087803b1580156119cd57600080fd5b505af19250505080156119fe57506040513d601f19601f820116820180604052508101906119fb919061334f565b60015b611a81573d8060008114611a2e576040519150601f19603f3d011682016040523d82523d6000602084013e611a33565b606091505b50600081511415611a79576040517f08c379a0000000000000000000000000000000000000000000000000000000008152600401611a70906131b8565b60405180910390fd5b805181602001fd5b63150b7a0260e01b7bffffffffffffffffffffffffffffffffffffffffffffffffffffffff1916817bffffffffffffffffffffffffffffffffffffffffffffffffffffffff191614915050611ad6565b600190505b949350505050565b600080600090507a184f03e93ff9f4daa797ed6e38ed64bf6a1f0100000000000000008310611b3c577a184f03e93ff9f4daa797ed6e38ed64bf6a1f0100000000000000008381611b3257611b316131d8565b5b0492506040810190505b6d04ee2d6d415b85acef81000000008310611b79576d04ee2d6d415b85acef81000000008381611b6f57611b6e6131d8565b5b0492506020810190505b662386f26fc100008310611ba857662386f26fc100008381611b9e57611b9d6131d8565b5b0492506010810190505b6305f5e1008310611bd1576305f5e1008381611bc757611bc66131d8565b5b0492506008810190505b6127108310611bf6576127108381611bec57611beb6131d8565b5b0492506004810190505b60648310611c195760648381611c0f57611c0e6131d8565b5b0492506002810190505b600a8310611c28576001810190505b80915050919050565b611c3b8383611caf565b611c486000848484611947565b611c87576040517f08c379a0000000000000000000000000000000000000000000000000000000008152600401611c7e906131b8565b60405180910390fd5b505050565b6000808273ffffffffffffffffffffffffffffffffffffffff163b119050919050565b600073ffffffffffffffffffffffffffffffffffffffff168273ffffffffffffffffffffffffffffffffffffffff161415611d1f576040517f08c379a0000000000000000000000000000000000000000000000000000000008152600401611d16906133c8565b60405180910390fd5b611d288161176c565b15611d68576040517f08c379a0000000000000000000000000000000000000000000000000000000008152600401611d5f90613434565b60405180910390fd5b611d7660008383600161193b565b611d7f8161176c565b15611dbf576040517f08c379a0000000000000000000000000000000000000000000000000000000008152600401611db690613434565b60405180910390fd5b6001600360008473ffffffffffffffffffffffffffffffffffffffff1673ffffffffffffffffffffffffffffffffffffffff16815260200190815260200160002060008282540192505081905550816002600083815260200190815260200160002060006101000a81548173ffffffffffffffffffffffffffffffffffffffff021916908373ffffffffffffffffffffffffffffffffffffffff160217905550808273ffffffffffffffffffffffffffffffffffffffff16600073ffffffffffffffffffffffffffffffffffffffff167fddf252ad1be2c89b69c2b068fc378daa952ba7f163c4a11628f55a4df523b3ef60405160405180910390a4611ec9600083836001611941565b5050565b828054611ed990612817565b90600052602060002090601f016020900481019282611efb5760008555611f42565b82601f10611f1457805160ff1916838001178555611f42565b82800160010185558215611f42579182015b82811115611f41578251825591602001919060010190611f26565b5b509050611f4f9190611f53565b5090565b5b80821115611f6c576000816000905550600101611f54565b5090565b6000604051905090565b600080fd5b600080fd5b60007fffffffff0000000000000000000000000000000000000000000000000000000082169050919050565b611fb981611f84565b8114611fc457600080fd5b50565b600081359050611fd681611fb0565b92915050565b600060208284031215611ff257611ff1611f7a565b5b600061200084828501611fc7565b91505092915050565b60008115159050919050565b61201e81612009565b82525050565b60006020820190506120396000830184612015565b92915050565b600081519050919050565b600082825260208201905092915050565b60005b8381101561207957808201518184015260208101905061205e565b83811115612088576000848401525b50505050565b6000601f19601f8301169050919050565b60006120aa8261203f565b6120b4818561204a565b93506120c481856020860161205b565b6120cd8161208e565b840191505092915050565b600060208201905081810360008301526120f2818461209f565b905092915050565b6000819050919050565b61210d816120fa565b811461211857600080fd5b50565b60008135905061212a81612104565b92915050565b60006020828403121561214657612145611f7a565b5b60006121548482850161211b565b91505092915050565b600073ffffffffffffffffffffffffffffffffffffffff82169050919050565b60006121888261215d565b9050919050565b6121988161217d565b82525050565b60006020820190506121b3600083018461218f565b92915050565b6121c28161217d565b81146121cd57600080fd5b50565b6000813590506121df816121b9565b92915050565b600080604083850312156121fc576121fb611f7a565b5b600061220a858286016121d0565b925050602061221b8582860161211b565b9150509250929050565b600063ffffffff82169050919050565b61223e81612225565b811461224957600080fd5b50565b60008135905061225b81612235565b92915050565b600080fd5b600080fd5b7f4e487b7100000000000000000000000000000000000000000000000000000000600052604160045260246000fd5b6122a38261208e565b810181811067ffffffffffffffff821117156122c2576122c161226b565b5b80604052505050565b60006122d5611f70565b90506122e1828261229a565b919050565b600067ffffffffffffffff8211156123015761230061226b565b5b61230a8261208e565b9050602081019050919050565b82818337600083830152505050565b6000612339612334846122e6565b6122cb565b90508281526020810184848401111561235557612354612266565b5b612360848285612317565b509392505050565b600082601f83011261237d5761237c612261565b5b813561238d848260208601612326565b91505092915050565b6000806000606084860312156123af576123ae611f7a565b5b60006123bd868287016121d0565b93505060206123ce8682870161224c565b925050604084013567ffffffffffffffff8111156123ef576123ee611f7f565b5b6123fb86828701612368565b9150509250925092565b60008060006060848603121561241e5761241d611f7a565b5b600061242c868287016121d0565b935050602061243d868287016121d0565b925050604061244e8682870161211b565b9150509250925092565b6000819050919050565b61246b81612458565b811461247657600080fd5b50565b60008135905061248881612462565b92915050565b6000602082840312156124a4576124a3611f7a565b5b60006124b284828501612479565b91505092915050565b6124c4816120fa565b82525050565b60006060820190506124df600083018661218f565b6124ec602083018561218f565b6124f960408301846124bb565b949350505050565b60006020828403121561251757612516611f7a565b5b6000612525848285016121d0565b91505092915050565b600060208201905061254360008301846124bb565b92915050565b61255281612009565b811461255d57600080fd5b50565b60008135905061256f81612549565b92915050565b6000806040838503121561258c5761258b611f7a565b5b600061259a858286016121d0565b92505060206125ab85828601612560565b9150509250929050565b600080604083850312156125cc576125cb611f7a565b5b60006125da858286016121d0565b92505060206125eb858286016121d0565b9150509250929050565b6000806000806080858703121561260f5761260e611f7a565b5b600061261d878288016121d0565b945050602061262e878288016121d0565b935050604061263f8782880161211b565b925050606085013567ffffffffffffffff8111156126605761265f611f7f565b5b61266c87828801612368565b91505092959194509250565b600067ffffffffffffffff8211156126935761269261226b565b5b61269c8261208e565b9050602081019050919050565b60006126bc6126b784612678565b6122cb565b9050828152602081018484840111156126d8576126d7612266565b5b6126e3848285612317565b509392505050565b600082601f830112612700576126ff612261565b5b81356127108482602086016126a9565b91505092915050565b600080604083850312156127305761272f611f7a565b5b600061273e858286016121d0565b925050602083013567ffffffffffffffff81111561275f5761275e611f7f565b5b61276b858286016126eb565b9150509250929050565b60006020828403121561278b5761278a611f7a565b5b600082013567ffffffffffffffff8111156127a9576127a8611f7f565b5b6127b584828501612368565b91505092915050565b6127c781612458565b82525050565b60006020820190506127e260008301846127be565b92915050565b7f4e487b7100000000000000000000000000000000000000000000000000000000600052602260045260246000fd5b6000600282049050600182168061282f57607f821691505b60208210811415612843576128426127e8565b5b50919050565b7f4552433732313a20617070726f76616c20746f2063757272656e74206f776e6560008201527f7200000000000000000000000000000000000000000000000000000000000000602082015250565b60006128a560218361204a565b91506128b082612849565b604082019050919050565b600060208201905081810360008301526128d481612898565b9050919050565b7f4552433732313a20617070726f76652063616c6c6572206973206e6f7420746f60008201527f6b656e206f776e6572206f7220617070726f76656420666f7220616c6c000000602082015250565b6000612937603d8361204a565b9150612942826128db565b604082019050919050565b600060208201905081810360008301526129668161292a565b9050919050565b7f6f6e6c792063616c6c61626c65207669612063726f737320636861696e206d6560008201527f73736167696e672c207075626c69632041504920204067616c6178794272696460208201527f6765200000000000000000000000000000000000000000000000000000000000604082015250565b60006129ef60438361204a565b91506129fa8261296d565b606082019050919050565b60006020820190508181036000830152612a1e816129e2565b9050919050565b7f6d657373616765206973206e6f742066726f6d2074686520736973746572436f60008201527f6e74726163742100000000000000000000000000000000000000000000000000602082015250565b6000612a8160278361204a565b9150612a8c82612a25565b604082019050919050565b60006020820190508181036000830152612ab081612a74565b9050919050565b7f4552433732313a2063616c6c6572206973206e6f7420746f6b656e206f776e6560008201527f72206f7220617070726f76656400000000000000000000000000000000000000602082015250565b6000612b13602d8361204a565b9150612b1e82612ab7565b604082019050919050565b60006020820190508181036000830152612b4281612b06565b9050919050565b7f4552433732313a20696e76616c696420746f6b656e2049440000000000000000600082015250565b6000612b7f60188361204a565b9150612b8a82612b49565b602082019050919050565b60006020820190508181036000830152612bae81612b72565b9050919050565b7f4552433732313a2061646472657373207a65726f206973206e6f74206120766160008201527f6c6964206f776e65720000000000000000000000000000000000000000000000602082015250565b6000612c1160298361204a565b9150612c1c82612bb5565b604082019050919050565b60006020820190508181036000830152612c4081612c04565b9050919050565b7f45524337323155524953746f726167653a2055524920717565727920666f722060008201527f6e6f6e6578697374656e7420746f6b656e000000000000000000000000000000602082015250565b6000612ca360318361204a565b9150612cae82612c47565b604082019050919050565b60006020820190508181036000830152612cd281612c96565b9050919050565b600081905092915050565b7f7b226e616d65223a2022546f6b656e2000000000000000000000000000000000600082015250565b6000612d1a601083612cd9565b9150612d2582612ce4565b601082019050919050565b6000612d3b8261203f565b612d458185612cd9565b9350612d5581856020860161205b565b80840191505092915050565b7f222c20226465736372697074696f6e223a2022412047616c617879427269646760008201527f6520746f6b656e222c2022696d616765223a202268747470733a2f2f75706c6f60208201527f61642e77696b696d656469612e6f72672f77696b6970656469612f656e2f352f60408201527f35662f4f726967696e616c5f446f67655f6d656d652e6a7067227d0000000000606082015250565b6000612e09607b83612cd9565b9150612e1482612d61565b607b82019050919050565b6000612e2a82612d0d565b9150612e368284612d30565b9150612e4182612dfc565b915081905092915050565b7f496e707574206c656e677468206d757374206265203332206279746573000000600082015250565b6000612e82601d8361204a565b9150612e8d82612e4c565b602082019050919050565b60006020820190508181036000830152612eb181612e75565b9050919050565b7f4f776e61626c653a206e6577206f776e657220697320746865207a65726f206160008201527f6464726573730000000000000000000000000000000000000000000000000000602082015250565b6000612f1460268361204a565b9150612f1f82612eb8565b604082019050919050565b60006020820190508181036000830152612f4381612f07565b9050919050565b7f4552433732313a207472616e736665722066726f6d20696e636f72726563742060008201527f6f776e6572000000000000000000000000000000000000000000000000000000602082015250565b6000612fa660258361204a565b9150612fb182612f4a565b604082019050919050565b60006020820190508181036000830152612fd581612f99565b9050919050565b7f4552433732313a207472616e7366657220746f20746865207a65726f2061646460008201527f7265737300000000000000000000000000000000000000000000000000000000602082015250565b600061303860248361204a565b915061304382612fdc565b604082019050919050565b600060208201905081810360008301526130678161302b565b9050919050565b7f4f776e61626c653a2063616c6c6572206973206e6f7420746865206f776e6572600082015250565b60006130a460208361204a565b91506130af8261306e565b602082019050919050565b600060208201905081810360008301526130d381613097565b9050919050565b7f4552433732313a20617070726f766520746f2063616c6c657200000000000000600082015250565b600061311060198361204a565b915061311b826130da565b602082019050919050565b6000602082019050818103600083015261313f81613103565b9050919050565b7f4552433732313a207472616e7366657220746f206e6f6e20455243373231526560008201527f63656976657220696d706c656d656e7465720000000000000000000000000000602082015250565b60006131a260328361204a565b91506131ad82613146565b604082019050919050565b600060208201905081810360008301526131d181613195565b9050919050565b7f4e487b7100000000000000000000000000000000000000000000000000000000600052601260045260246000fd5b7f45524337323155524953746f726167653a2055524920736574206f66206e6f6e60008201527f6578697374656e7420746f6b656e000000000000000000000000000000000000602082015250565b6000613263602e8361204a565b915061326e82613207565b604082019050919050565b6000602082019050818103600083015261329281613256565b9050919050565b600081519050919050565b600082825260208201905092915050565b60006132c082613299565b6132ca81856132a4565b93506132da81856020860161205b565b6132e38161208e565b840191505092915050565b6000608082019050613303600083018761218f565b613310602083018661218f565b61331d60408301856124bb565b818103606083015261332f81846132b5565b905095945050505050565b60008151905061334981611fb0565b92915050565b60006020828403121561336557613364611f7a565b5b60006133738482850161333a565b91505092915050565b7f4552433732313a206d696e7420746f20746865207a65726f2061646472657373600082015250565b60006133b260208361204a565b91506133bd8261337c565b602082019050919050565b600060208201905081810360008301526133e1816133a5565b9050919050565b7f4552433732313a20746f6b656e20616c7265616479206d696e74656400000000600082015250565b600061341e601c8361204a565b9150613429826133e8565b602082019050919050565b6000602082019050818103600083015261344d81613411565b905091905056fea2646970667358221220705e986ba3499a146ac70884405778209fda7f5e291db09b579dfd27adae724664736f6c63430008090033",
  "linkReferences": {},
  "deployedLinkReferences": {}
}