{
  "_format": "hh-sol-artifact-1",
  "contractName": "openAccessNFTBridge",
  "sourceName": "contracts/polygon_zkEVM_bridgeL1.sol",
  "abi": [
    {
      "inputs": [
        {
          "internalType": "uint256",
          "name": "_chainType",
          "type": "uint256"
        }
      ],
      "stateMutability": "nonpayable",
      "type": "constructor"
    },
    {
      "anonymous": false,
      "inputs": [
        {
          "indexed": true,
          "internalType": "address",
          "name": "previousOwner",
          "type": "address"
        },
        {
          "indexed": true,
          "internalType": "address",
          "name": "newOwner",
          "type": "address"
        }
      ],
      "name": "OwnershipTransferred",
      "type": "event"
    },
    {
      "anonymous": false,
      "inputs": [
        {
          "indexed": true,
          "internalType": "address",
          "name": "sender",
          "type": "address"
        },
        {
          "indexed": true,
          "internalType": "bytes32",
          "name": "dataPayload",
          "type": "bytes32"
        }
      ],
      "name": "bridgeData",
      "type": "event"
    },
    {
      "anonymous": false,
      "inputs": [
        {
          "indexed": false,
          "internalType": "address",
          "name": "owner",
          "type": "address"
        },
        {
          "indexed": false,
          "internalType": "address",
          "name": "indexednftContract",
          "type": "address"
        },
        {
          "indexed": true,
          "internalType": "uint256",
          "name": "nftId",
          "type": "uint256"
        }
      ],
      "name": "bridgeRequestSent",
      "type": "event"
    },
    {
      "inputs": [
        {
          "internalType": "address",
          "name": "_SisterContractInit",
          "type": "address"
        }
      ],
      "name": "addSisterBridgeContract",
      "outputs": [],
      "stateMutability": "nonpayable",
      "type": "function"
    },
    {
      "inputs": [
        {
          "internalType": "address",
          "name": "_newSisterContract",
          "type": "address"
        }
      ],
      "name": "addSisterContract",
      "outputs": [],
      "stateMutability": "nonpayable",
      "type": "function"
    },
    {
      "inputs": [
        {
          "internalType": "address",
          "name": "_newSisterContract",
          "type": "address"
        },
        {
          "internalType": "bytes",
          "name": "_signature",
          "type": "bytes"
        }
      ],
      "name": "addSisterContractViaSignature",
      "outputs": [],
      "stateMutability": "nonpayable",
      "type": "function"
    },
    {
      "inputs": [
        {
          "internalType": "uint256",
          "name": "",
          "type": "uint256"
        }
      ],
      "name": "bridgeRequestInitiatorSender",
      "outputs": [
        {
          "internalType": "address",
          "name": "",
          "type": "address"
        }
      ],
      "stateMutability": "view",
      "type": "function"
    },
    {
      "inputs": [
        {
          "internalType": "uint256",
          "name": "",
          "type": "uint256"
        }
      ],
      "name": "bridgeRequestInitiatorUser",
      "outputs": [
        {
          "internalType": "address",
          "name": "",
          "type": "address"
        }
      ],
      "stateMutability": "view",
      "type": "function"
    },
    {
      "inputs": [
        {
          "internalType": "bytes32",
          "name": "_dataPayload",
          "type": "bytes32"
        },
        {
          "internalType": "bytes32[32]",
          "name": "_smtProof",
          "type": "bytes32[32]"
        },
        {
          "internalType": "uint32",
          "name": "index",
          "type": "uint32"
        },
        {
          "internalType": "bytes32",
          "name": "mainnetExitRoot",
          "type": "bytes32"
        },
        {
          "internalType": "bytes32",
          "name": "rollupExitRoot",
          "type": "bytes32"
        }
      ],
      "name": "claimBridged",
      "outputs": [],
      "stateMutability": "nonpayable",
      "type": "function"
    },
    {
      "inputs": [],
      "name": "currentBridgeSignalContract",
      "outputs": [
        {
          "internalType": "address",
          "name": "",
          "type": "address"
        }
      ],
      "stateMutability": "view",
      "type": "function"
    },
    {
      "inputs": [],
      "name": "currentChainId",
      "outputs": [
        {
          "internalType": "uint32",
          "name": "",
          "type": "uint32"
        }
      ],
      "stateMutability": "view",
      "type": "function"
    },
    {
      "inputs": [],
      "name": "currentChainType",
      "outputs": [
        {
          "internalType": "uint256",
          "name": "",
          "type": "uint256"
        }
      ],
      "stateMutability": "view",
      "type": "function"
    },
    {
      "inputs": [],
      "name": "currentSisterChainId",
      "outputs": [
        {
          "internalType": "uint32",
          "name": "",
          "type": "uint32"
        }
      ],
      "stateMutability": "view",
      "type": "function"
    },
    {
      "inputs": [],
      "name": "currentSisterContract",
      "outputs": [
        {
          "internalType": "address",
          "name": "",
          "type": "address"
        }
      ],
      "stateMutability": "view",
      "type": "function"
    },
    {
      "inputs": [
        {
          "internalType": "bytes32",
          "name": "encodedMessageNFTBridge",
          "type": "bytes32"
        }
      ],
      "name": "decodeMessagePayload",
      "outputs": [
        {
          "internalType": "address",
          "name": "",
          "type": "address"
        },
        {
          "internalType": "address",
          "name": "",
          "type": "address"
        },
        {
          "internalType": "uint256",
          "name": "",
          "type": "uint256"
        }
      ],
      "stateMutability": "pure",
      "type": "function"
    },
    {
      "inputs": [
        {
          "internalType": "address",
          "name": "_addrOwner",
          "type": "address"
        },
        {
          "internalType": "address",
          "name": "_addrOriginNftContract",
          "type": "address"
        },
        {
          "internalType": "uint256",
          "name": "_nftId",
          "type": "uint256"
        }
      ],
      "name": "encodeMessagePayload",
      "outputs": [
        {
          "internalType": "bytes32",
          "name": "",
          "type": "bytes32"
        }
      ],
      "stateMutability": "pure",
      "type": "function"
    },
    {
      "inputs": [],
      "name": "ethereumGoerliBridgeContract",
      "outputs": [
        {
          "internalType": "address",
          "name": "",
          "type": "address"
        }
      ],
      "stateMutability": "view",
      "type": "function"
    },
    {
      "inputs": [],
      "name": "goerliChainId",
      "outputs": [
        {
          "internalType": "uint32",
          "name": "",
          "type": "uint32"
        }
      ],
      "stateMutability": "view",
      "type": "function"
    },
    {
      "inputs": [
        {
          "internalType": "address",
          "name": "operator",
          "type": "address"
        },
        {
          "internalType": "address",
          "name": "from",
          "type": "address"
        },
        {
          "internalType": "uint256",
          "name": "tokenId",
          "type": "uint256"
        },
        {
          "internalType": "bytes",
          "name": "data",
          "type": "bytes"
        }
      ],
      "name": "onERC721Received",
      "outputs": [
        {
          "internalType": "bytes4",
          "name": "",
          "type": "bytes4"
        }
      ],
      "stateMutability": "nonpayable",
      "type": "function"
    },
    {
      "inputs": [],
      "name": "owner",
      "outputs": [
        {
          "internalType": "address",
          "name": "",
          "type": "address"
        }
      ],
      "stateMutability": "view",
      "type": "function"
    },
    {
      "inputs": [],
      "name": "polygonChainIdZK",
      "outputs": [
        {
          "internalType": "uint32",
          "name": "",
          "type": "uint32"
        }
      ],
      "stateMutability": "view",
      "type": "function"
    },
    {
      "inputs": [],
      "name": "polygonzkEVMBridgeContractL1",
      "outputs": [
        {
          "internalType": "address",
          "name": "",
          "type": "address"
        }
      ],
      "stateMutability": "view",
      "type": "function"
    },
    {
      "inputs": [],
      "name": "polygonzkEVMBridgeContractL2",
      "outputs": [
        {
          "internalType": "address",
          "name": "",
          "type": "address"
        }
      ],
      "stateMutability": "view",
      "type": "function"
    },
    {
      "inputs": [],
      "name": "renounceOwnership",
      "outputs": [],
      "stateMutability": "nonpayable",
      "type": "function"
    },
    {
      "inputs": [
        {
          "internalType": "uint256",
          "name": "",
          "type": "uint256"
        }
      ],
      "name": "sentPayload",
      "outputs": [
        {
          "internalType": "bytes32",
          "name": "",
          "type": "bytes32"
        }
      ],
      "stateMutability": "view",
      "type": "function"
    },
    {
      "inputs": [
        {
          "internalType": "address",
          "name": "",
          "type": "address"
        }
      ],
      "name": "sisterContract",
      "outputs": [
        {
          "internalType": "address",
          "name": "",
          "type": "address"
        }
      ],
      "stateMutability": "view",
      "type": "function"
    },
    {
      "inputs": [
        {
          "internalType": "uint256",
          "name": "",
          "type": "uint256"
        }
      ],
      "name": "storageSlotsBridgeRequest",
      "outputs": [
        {
          "internalType": "bytes32",
          "name": "",
          "type": "bytes32"
        }
      ],
      "stateMutability": "view",
      "type": "function"
    },
    {
      "inputs": [],
      "name": "totalRequestsSent",
      "outputs": [
        {
          "internalType": "uint256",
          "name": "",
          "type": "uint256"
        }
      ],
      "stateMutability": "view",
      "type": "function"
    },
    {
      "inputs": [
        {
          "internalType": "address",
          "name": "newOwner",
          "type": "address"
        }
      ],
      "name": "transferOwnership",
      "outputs": [],
      "stateMutability": "nonpayable",
      "type": "function"
    }
  ],
  "bytecode": "0x608060405273f6beeebb578e214ca9e23b0e9683454ff88ed2a7600360006101000a81548173ffffffffffffffffffffffffffffffffffffffff021916908373ffffffffffffffffffffffffffffffffffffffff16021790555073f6beeebb578e214ca9e23b0e9683454ff88ed2a7600460006101000a81548173ffffffffffffffffffffffffffffffffffffffff021916908373ffffffffffffffffffffffffffffffffffffffff1602179055507311013a48ad87a528d23cda25d2c34d7dbda6b46b600560006101000a81548173ffffffffffffffffffffffffffffffffffffffff021916908373ffffffffffffffffffffffffffffffffffffffff16021790555060058060146101000a81548163ffffffff021916908363ffffffff1602179055506105a2600560186101000a81548163ffffffff021916908363ffffffff16021790555060006006556000600860146101000a81548160ff0219169083151502179055503480156200017457600080fd5b50604051620022523803806200225283398181016040528101906200019a91906200047c565b620001ba620001ae6200037060201b60201c565b6200037860201b60201c565b8060068190555060018114156200029557600360009054906101000a900473ffffffffffffffffffffffffffffffffffffffff16600760006101000a81548173ffffffffffffffffffffffffffffffffffffffff021916908373ffffffffffffffffffffffffffffffffffffffff160217905550600560149054906101000a900463ffffffff16600860156101000a81548163ffffffff021916908363ffffffff160217905550600560189054906101000a900463ffffffff16600860196101000a81548163ffffffff021916908363ffffffff1602179055505b60028114156200036957600460009054906101000a900473ffffffffffffffffffffffffffffffffffffffff16600760006101000a81548173ffffffffffffffffffffffffffffffffffffffff021916908373ffffffffffffffffffffffffffffffffffffffff160217905550600560189054906101000a900463ffffffff16600860156101000a81548163ffffffff021916908363ffffffff160217905550600560149054906101000a900463ffffffff16600860196101000a81548163ffffffff021916908363ffffffff1602179055505b50620004ae565b600033905090565b60008060009054906101000a900473ffffffffffffffffffffffffffffffffffffffff169050816000806101000a81548173ffffffffffffffffffffffffffffffffffffffff021916908373ffffffffffffffffffffffffffffffffffffffff1602179055508173ffffffffffffffffffffffffffffffffffffffff168173ffffffffffffffffffffffffffffffffffffffff167f8be0079c531659141344cd1fd0a4f28419497f9722a3daafe3b4186f6b6457e060405160405180910390a35050565b600080fd5b6000819050919050565b620004568162000441565b81146200046257600080fd5b50565b60008151905062000476816200044b565b92915050565b6000602082840312156200049557620004946200043c565b5b6000620004a58482850162000465565b91505092915050565b611d9480620004be6000396000f3fe608060405234801561001057600080fd5b506004361061018e5760003560e01c80638da5cb5b116100de578063b5e2a01511610097578063cd803c6511610071578063cd803c651461049d578063cfb69616146104bb578063dff7acef146104d9578063f2fde38b146104f75761018e565b8063b5e2a01514610431578063b6ed4a191461044f578063c8f52a041461047f5761018e565b80638da5cb5b146103595780638e5b11dc1461037757806393cf1c7d1461039557806394ea6f21146103b3578063abeae677146103d1578063b2e52d43146104015761018e565b806344eee0c81161014b5780635826a171116101255780635826a171146102e3578063598bfa38146103155780636cbadbfa14610331578063715018a61461034f5761018e565b806344eee0c8146102775780634abf8204146102a7578063503d07eb146102c55761018e565b80630abccc33146101935780630d88e877146101af5780630e2d7ebf146101df578063150b7a02146101fb578063384e84811461022b5780633c784ac41461025b575b600080fd5b6101ad60048036038101906101a891906113af565b610513565b005b6101c960048036038101906101c49190611441565b610517565b6040516101d69190611487565b60405180910390f35b6101f960048036038101906101f49190611530565b61052f565b005b6102156004803603810190610210919061160a565b610943565b60405161022291906116cd565b60405180910390f35b610245600480360381019061024091906116e8565b610bb6565b6040516102529190611724565b60405180910390f35b610275600480360381019061027091906116e8565b610be9565b005b610291600480360381019061028c9190611441565b610c6a565b60405161029e9190611487565b60405180910390f35b6102af610c82565b6040516102bc919061174e565b60405180910390f35b6102cd610c88565b6040516102da9190611724565b60405180910390f35b6102fd60048036038101906102f89190611769565b610cae565b60405161030c93929190611796565b60405180910390f35b61032f600480360381019061032a91906116e8565b610cef565b005b610339610da6565b60405161034691906117dc565b60405180910390f35b610357610dbc565b005b610361610dd0565b60405161036e9190611724565b60405180910390f35b61037f610df9565b60405161038c91906117dc565b60405180910390f35b61039d610e0f565b6040516103aa91906117dc565b60405180910390f35b6103bb610e25565b6040516103c891906117dc565b60405180910390f35b6103eb60048036038101906103e691906117f7565b610e3b565b6040516103f89190611487565b60405180910390f35b61041b60048036038101906104169190611441565b610e87565b6040516104289190611724565b60405180910390f35b610439610eba565b6040516104469190611724565b60405180910390f35b61046960048036038101906104649190611441565b610ee0565b6040516104769190611724565b60405180910390f35b610487610f13565b6040516104949190611724565b60405180910390f35b6104a5610f39565b6040516104b2919061174e565b60405180910390f35b6104c3610f3f565b6040516104d09190611724565b60405180910390f35b6104e1610f65565b6040516104ee9190611724565b60405180910390f35b610511600480360381019061050c91906116e8565b610f8b565b005b5050565b600b6020528060005260406000206000915090505481565b600160009054906101000a900473ffffffffffffffffffffffffffffffffffffffff1673ffffffffffffffffffffffffffffffffffffffff16632d2c9d9485858585600860199054906101000a900463ffffffff16600860009054906101000a900473ffffffffffffffffffffffffffffffffffffffff1660023060008f6040516020016105bd919061186b565b6040516020818303038152906040526040518b63ffffffff1660e01b81526004016105f19a9998979695949392919061199f565b600060405180830381600087803b15801561060b57600080fd5b505af115801561061f573d6000803e3d6000fd5b50505050600080600061063188610cae565b925092509250600960008473ffffffffffffffffffffffffffffffffffffffff1673ffffffffffffffffffffffffffffffffffffffff1681526020019081526020016000206000600a60008573ffffffffffffffffffffffffffffffffffffffff1673ffffffffffffffffffffffffffffffffffffffff16815260200190815260200160002060009054906101000a900473ffffffffffffffffffffffffffffffffffffffff1673ffffffffffffffffffffffffffffffffffffffff1673ffffffffffffffffffffffffffffffffffffffff168152602001908152602001600020600082815260200190815260200160002060009054906101000a900460ff161561093957600073ffffffffffffffffffffffffffffffffffffffff16600a60008473ffffffffffffffffffffffffffffffffffffffff1673ffffffffffffffffffffffffffffffffffffffff16815260200190815260200160002060009054906101000a900473ffffffffffffffffffffffffffffffffffffffff1673ffffffffffffffffffffffffffffffffffffffff161415610805576040517f08c379a00000000000000000000000000000000000000000000000000000000081526004016107fc90611aa6565b60405180910390fd5b6000600a60008473ffffffffffffffffffffffffffffffffffffffff1673ffffffffffffffffffffffffffffffffffffffff16815260200190815260200160002060009054906101000a900473ffffffffffffffffffffffffffffffffffffffff1690508073ffffffffffffffffffffffffffffffffffffffff166342842e0e600a60008673ffffffffffffffffffffffffffffffffffffffff1673ffffffffffffffffffffffffffffffffffffffff16815260200190815260200160002060009054906101000a900473ffffffffffffffffffffffffffffffffffffffff1686856040518463ffffffff1660e01b815260040161090593929190611796565b600060405180830381600087803b15801561091f57600080fd5b505af1158015610933573d6000803e3d6000fd5b50505050505b5050505050505050565b6000803390506000610956828888610e3b565b905080600e6000600f5481526020019081526020016000208190555086600c6000600f54815260200190815260200160002060006101000a81548173ffffffffffffffffffffffffffffffffffffffff021916908373ffffffffffffffffffffffffffffffffffffffff16021790555033600d6000600f54815260200190815260200160002060006101000a81548173ffffffffffffffffffffffffffffffffffffffff021916908373ffffffffffffffffffffffffffffffffffffffff160217905550803373ffffffffffffffffffffffffffffffffffffffff167fee05a900e71dee4e0e610e4ee878f3eb14ca0ab88a8fae665a66fb8a6cebac8d60405160405180910390a3600f6000815480929190610a7190611af5565b91905055506001600960008973ffffffffffffffffffffffffffffffffffffffff1673ffffffffffffffffffffffffffffffffffffffff16815260200190815260200160002060008473ffffffffffffffffffffffffffffffffffffffff1673ffffffffffffffffffffffffffffffffffffffff168152602001908152602001600020600088815260200190815260200160002060006101000a81548160ff021916908315150217905550857f9f511ff5d3ffbc7a0774e43a1c5c183519d2da873aeaea2f12cff2bdad362e5c8833604051610b4e929190611b3e565b60405180910390a2610ba1600860009054906101000a900473ffffffffffffffffffffffffffffffffffffffff1682604051602001610b8d919061186b565b60405160208183030381529060405261100f565b63150b7a0260e01b9250505095945050505050565b600a6020528060005260406000206000915054906101000a900473ffffffffffffffffffffffffffffffffffffffff1681565b80600a60003373ffffffffffffffffffffffffffffffffffffffff1673ffffffffffffffffffffffffffffffffffffffff16815260200190815260200160002060006101000a81548173ffffffffffffffffffffffffffffffffffffffff021916908373ffffffffffffffffffffffffffffffffffffffff16021790555050565b600e6020528060005260406000206000915090505481565b600f5481565b600360009054906101000a900473ffffffffffffffffffffffffffffffffffffffff1681565b60008060008060608560001c901c9050600060c060a08760001c901b901c9050600063ffffffff8760001c1690508282829550955095505050509193909250565b610cf76110ad565b600860149054906101000a900460ff1615610d47576040517f08c379a0000000000000000000000000000000000000000000000000000000008152600401610d3e90611bd9565b60405180910390fd5b6001600860146101000a81548160ff02191690831515021790555080600860006101000a81548173ffffffffffffffffffffffffffffffffffffffff021916908373ffffffffffffffffffffffffffffffffffffffff16021790555050565b600860159054906101000a900463ffffffff1681565b610dc46110ad565b610dce600061112b565b565b60008060009054906101000a900473ffffffffffffffffffffffffffffffffffffffff16905090565b600560189054906101000a900463ffffffff1681565b600860199054906101000a900463ffffffff1681565b600560149054906101000a900463ffffffff1681565b6000808260208573ffffffffffffffffffffffffffffffffffffffff16901b60608773ffffffffffffffffffffffffffffffffffffffff16901b171760001b9050809150509392505050565b600d6020528060005260406000206000915054906101000a900473ffffffffffffffffffffffffffffffffffffffff1681565b600860009054906101000a900473ffffffffffffffffffffffffffffffffffffffff1681565b600c6020528060005260406000206000915054906101000a900473ffffffffffffffffffffffffffffffffffffffff1681565b600760009054906101000a900473ffffffffffffffffffffffffffffffffffffffff1681565b60065481565b600460009054906101000a900473ffffffffffffffffffffffffffffffffffffffff1681565b600560009054906101000a900473ffffffffffffffffffffffffffffffffffffffff1681565b610f936110ad565b600073ffffffffffffffffffffffffffffffffffffffff168173ffffffffffffffffffffffffffffffffffffffff161415611003576040517f08c379a0000000000000000000000000000000000000000000000000000000008152600401610ffa90611c6b565b60405180910390fd5b61100c8161112b565b50565b600073f6beeebb578e214ca9e23b0e9683454ff88ed2a790506000600190506000600190508273ffffffffffffffffffffffffffffffffffffffff1663240ff37834848885896040518663ffffffff1660e01b81526004016110749493929190611ca6565b6000604051808303818588803b15801561108d57600080fd5b505af11580156110a1573d6000803e3d6000fd5b50505050505050505050565b6110b56111ef565b73ffffffffffffffffffffffffffffffffffffffff166110d3610dd0565b73ffffffffffffffffffffffffffffffffffffffff1614611129576040517f08c379a000000000000000000000000000000000000000000000000000000000815260040161112090611d3e565b60405180910390fd5b565b60008060009054906101000a900473ffffffffffffffffffffffffffffffffffffffff169050816000806101000a81548173ffffffffffffffffffffffffffffffffffffffff021916908373ffffffffffffffffffffffffffffffffffffffff1602179055508173ffffffffffffffffffffffffffffffffffffffff168173ffffffffffffffffffffffffffffffffffffffff167f8be0079c531659141344cd1fd0a4f28419497f9722a3daafe3b4186f6b6457e060405160405180910390a35050565b600033905090565b6000604051905090565b600080fd5b600080fd5b600073ffffffffffffffffffffffffffffffffffffffff82169050919050565b60006112368261120b565b9050919050565b6112468161122b565b811461125157600080fd5b50565b6000813590506112638161123d565b92915050565b600080fd5b600080fd5b6000601f19601f8301169050919050565b7f4e487b7100000000000000000000000000000000000000000000000000000000600052604160045260246000fd5b6112bc82611273565b810181811067ffffffffffffffff821117156112db576112da611284565b5b80604052505050565b60006112ee6111f7565b90506112fa82826112b3565b919050565b600067ffffffffffffffff82111561131a57611319611284565b5b61132382611273565b9050602081019050919050565b82818337600083830152505050565b600061135261134d846112ff565b6112e4565b90508281526020810184848401111561136e5761136d61126e565b5b611379848285611330565b509392505050565b600082601f83011261139657611395611269565b5b81356113a684826020860161133f565b91505092915050565b600080604083850312156113c6576113c5611201565b5b60006113d485828601611254565b925050602083013567ffffffffffffffff8111156113f5576113f4611206565b5b61140185828601611381565b9150509250929050565b6000819050919050565b61141e8161140b565b811461142957600080fd5b50565b60008135905061143b81611415565b92915050565b60006020828403121561145757611456611201565b5b60006114658482850161142c565b91505092915050565b6000819050919050565b6114818161146e565b82525050565b600060208201905061149c6000830184611478565b92915050565b6114ab8161146e565b81146114b657600080fd5b50565b6000813590506114c8816114a2565b92915050565b600080fd5b60008190508260208002820111156114ee576114ed6114ce565b5b92915050565b600063ffffffff82169050919050565b61150d816114f4565b811461151857600080fd5b50565b60008135905061152a81611504565b92915050565b6000806000806000610480868803121561154d5761154c611201565b5b600061155b888289016114b9565b955050602061156c888289016114d3565b94505061042061157e8882890161151b565b935050610440611590888289016114b9565b9250506104606115a2888289016114b9565b9150509295509295909350565b600080fd5b60008083601f8401126115ca576115c9611269565b5b8235905067ffffffffffffffff8111156115e7576115e66115af565b5b602083019150836001820283011115611603576116026114ce565b5b9250929050565b60008060008060006080868803121561162657611625611201565b5b600061163488828901611254565b955050602061164588828901611254565b94505060406116568882890161142c565b935050606086013567ffffffffffffffff81111561167757611676611206565b5b611683888289016115b4565b92509250509295509295909350565b60007fffffffff0000000000000000000000000000000000000000000000000000000082169050919050565b6116c781611692565b82525050565b60006020820190506116e260008301846116be565b92915050565b6000602082840312156116fe576116fd611201565b5b600061170c84828501611254565b91505092915050565b61171e8161122b565b82525050565b60006020820190506117396000830184611715565b92915050565b6117488161140b565b82525050565b6000602082019050611763600083018461173f565b92915050565b60006020828403121561177f5761177e611201565b5b600061178d848285016114b9565b91505092915050565b60006060820190506117ab6000830186611715565b6117b86020830185611715565b6117c5604083018461173f565b949350505050565b6117d6816114f4565b82525050565b60006020820190506117f160008301846117cd565b92915050565b6000806000606084860312156118105761180f611201565b5b600061181e86828701611254565b935050602061182f86828701611254565b92505060406118408682870161142c565b9150509250925092565b6000819050919050565b6118656118608261146e565b61184a565b82525050565b60006118778284611854565b60208201915081905092915050565b6118936104008383611330565b5050565b6000819050919050565b6000819050919050565b60006118c66118c16118bc84611897565b6118a1565b6114f4565b9050919050565b6118d6816118ab565b82525050565b6000819050919050565b60006119016118fc6118f7846118dc565b6118a1565b61140b565b9050919050565b611911816118e6565b82525050565b600081519050919050565b600082825260208201905092915050565b60005b83811015611951578082015181840152602081019050611936565b83811115611960576000848401525b50505050565b600061197182611917565b61197b8185611922565b935061198b818560208601611933565b61199481611273565b840191505092915050565b6000610520820190506119b5600083018d611886565b6119c361040083018c6117cd565b6119d161042083018b611478565b6119df61044083018a611478565b6119ed6104608301896117cd565b6119fb610480830188611715565b611a096104a08301876118cd565b611a176104c0830186611715565b611a256104e0830185611908565b818103610500830152611a388184611966565b90509b9a5050505050505050505050565b600082825260208201905092915050565b7f6e6f2073697374657220636f6e74726163742073706563696669656421000000600082015250565b6000611a90601d83611a49565b9150611a9b82611a5a565b602082019050919050565b60006020820190508181036000830152611abf81611a83565b9050919050565b7f4e487b7100000000000000000000000000000000000000000000000000000000600052601160045260246000fd5b6000611b008261140b565b91507fffffffffffffffffffffffffffffffffffffffffffffffffffffffffffffffff821415611b3357611b32611ac6565b5b600182019050919050565b6000604082019050611b536000830185611715565b611b606020830184611715565b9392505050565b7f4120636f6e7472616374206973206120636f6e7472616374206973206120636f60008201527f6e74726163742100000000000000000000000000000000000000000000000000602082015250565b6000611bc3602783611a49565b9150611bce82611b67565b604082019050919050565b60006020820190508181036000830152611bf281611bb6565b9050919050565b7f4f776e61626c653a206e6577206f776e657220697320746865207a65726f206160008201527f6464726573730000000000000000000000000000000000000000000000000000602082015250565b6000611c55602683611a49565b9150611c6082611bf9565b604082019050919050565b60006020820190508181036000830152611c8481611c48565b9050919050565b60008115159050919050565b611ca081611c8b565b82525050565b6000608082019050611cbb60008301876117cd565b611cc86020830186611715565b611cd56040830185611c97565b8181036060830152611ce78184611966565b905095945050505050565b7f4f776e61626c653a2063616c6c6572206973206e6f7420746865206f776e6572600082015250565b6000611d28602083611a49565b9150611d3382611cf2565b602082019050919050565b60006020820190508181036000830152611d5781611d1b565b905091905056fea2646970667358221220cd976f225c329f5c06e71d2ce0feffa78d3a0f7528b0cf6f49015b859a06dff864736f6c63430008090033",
  "linkReferences": {},
  "deployedLinkReferences": {}
}