{
  "_format": "hh-sol-artifact-1",
  "contractName": "openAccessNFTBridge",
  "sourceName": "contracts/polygon_zkEVM_bridgeL1.sol",
  "abi": [
    {
      "inputs": [
        {
          "internalType": "uint256",
          "name": "_chainType",
          "type": "uint256"
        }
      ],
      "stateMutability": "nonpayable",
      "type": "constructor"
    },
    {
      "anonymous": false,
      "inputs": [
        {
          "indexed": true,
          "internalType": "address",
          "name": "previousOwner",
          "type": "address"
        },
        {
          "indexed": true,
          "internalType": "address",
          "name": "newOwner",
          "type": "address"
        }
      ],
      "name": "OwnershipTransferred",
      "type": "event"
    },
    {
      "anonymous": false,
      "inputs": [
        {
          "indexed": true,
          "internalType": "address",
          "name": "sender",
          "type": "address"
        },
        {
          "indexed": true,
          "internalType": "bytes32",
          "name": "dataPayload",
          "type": "bytes32"
        }
      ],
      "name": "bridgeData",
      "type": "event"
    },
    {
      "anonymous": false,
      "inputs": [
        {
          "indexed": false,
          "internalType": "address",
          "name": "owner",
          "type": "address"
        },
        {
          "indexed": false,
          "internalType": "address",
          "name": "indexednftContract",
          "type": "address"
        },
        {
          "indexed": true,
          "internalType": "uint256",
          "name": "nftId",
          "type": "uint256"
        }
      ],
      "name": "bridgeRequestSent",
      "type": "event"
    },
    {
      "anonymous": false,
      "inputs": [
        {
          "indexed": false,
          "internalType": "address",
          "name": "owner",
          "type": "address"
        },
        {
          "indexed": false,
          "internalType": "address",
          "name": "indexednftContract",
          "type": "address"
        },
        {
          "indexed": true,
          "internalType": "uint256",
          "name": "nftId",
          "type": "uint256"
        }
      ],
      "name": "bridgeSucess",
      "type": "event"
    },
    {
      "inputs": [
        {
          "internalType": "address",
          "name": "_SisterContractInit",
          "type": "address"
        }
      ],
      "name": "addSisterBridgeContract",
      "outputs": [],
      "stateMutability": "nonpayable",
      "type": "function"
    },
    {
      "inputs": [
        {
          "internalType": "address",
          "name": "_newSisterContract",
          "type": "address"
        }
      ],
      "name": "addSisterContract",
      "outputs": [],
      "stateMutability": "nonpayable",
      "type": "function"
    },
    {
      "inputs": [
        {
          "internalType": "address",
          "name": "_newSisterContract",
          "type": "address"
        },
        {
          "internalType": "bytes",
          "name": "_signature",
          "type": "bytes"
        }
      ],
      "name": "addSisterContractViaSignature",
      "outputs": [],
      "stateMutability": "nonpayable",
      "type": "function"
    },
    {
      "inputs": [
        {
          "internalType": "uint256",
          "name": "",
          "type": "uint256"
        }
      ],
      "name": "bridgeRequestInitiatorSender",
      "outputs": [
        {
          "internalType": "address",
          "name": "",
          "type": "address"
        }
      ],
      "stateMutability": "view",
      "type": "function"
    },
    {
      "inputs": [
        {
          "internalType": "uint256",
          "name": "",
          "type": "uint256"
        }
      ],
      "name": "bridgeRequestInitiatorUser",
      "outputs": [
        {
          "internalType": "address",
          "name": "",
          "type": "address"
        }
      ],
      "stateMutability": "view",
      "type": "function"
    },
    {
      "inputs": [
        {
          "internalType": "bytes32",
          "name": "_dataPayload",
          "type": "bytes32"
        },
        {
          "internalType": "bytes32[32]",
          "name": "_smtProof",
          "type": "bytes32[32]"
        },
        {
          "internalType": "uint32",
          "name": "index",
          "type": "uint32"
        },
        {
          "internalType": "bytes32",
          "name": "mainnetExitRoot",
          "type": "bytes32"
        },
        {
          "internalType": "bytes32",
          "name": "rollupExitRoot",
          "type": "bytes32"
        }
      ],
      "name": "claimBridged",
      "outputs": [],
      "stateMutability": "nonpayable",
      "type": "function"
    },
    {
      "inputs": [],
      "name": "currentBridgeSignalContract",
      "outputs": [
        {
          "internalType": "address",
          "name": "",
          "type": "address"
        }
      ],
      "stateMutability": "view",
      "type": "function"
    },
    {
      "inputs": [],
      "name": "currentChainId",
      "outputs": [
        {
          "internalType": "uint32",
          "name": "",
          "type": "uint32"
        }
      ],
      "stateMutability": "view",
      "type": "function"
    },
    {
      "inputs": [],
      "name": "currentChainType",
      "outputs": [
        {
          "internalType": "uint256",
          "name": "",
          "type": "uint256"
        }
      ],
      "stateMutability": "view",
      "type": "function"
    },
    {
      "inputs": [],
      "name": "currentSisterChainId",
      "outputs": [
        {
          "internalType": "uint32",
          "name": "",
          "type": "uint32"
        }
      ],
      "stateMutability": "view",
      "type": "function"
    },
    {
      "inputs": [],
      "name": "currentSisterContract",
      "outputs": [
        {
          "internalType": "address",
          "name": "",
          "type": "address"
        }
      ],
      "stateMutability": "view",
      "type": "function"
    },
    {
      "inputs": [
        {
          "internalType": "bytes32",
          "name": "encodedMessageNFTBridge",
          "type": "bytes32"
        }
      ],
      "name": "decodeMessagePayload",
      "outputs": [
        {
          "internalType": "address",
          "name": "",
          "type": "address"
        },
        {
          "internalType": "address",
          "name": "",
          "type": "address"
        },
        {
          "internalType": "uint256",
          "name": "",
          "type": "uint256"
        }
      ],
      "stateMutability": "pure",
      "type": "function"
    },
    {
      "inputs": [
        {
          "internalType": "address",
          "name": "_addrOwner",
          "type": "address"
        },
        {
          "internalType": "address",
          "name": "_addrOriginNftContract",
          "type": "address"
        },
        {
          "internalType": "uint256",
          "name": "_nftId",
          "type": "uint256"
        }
      ],
      "name": "encodeMessagePayload",
      "outputs": [
        {
          "internalType": "bytes32",
          "name": "",
          "type": "bytes32"
        }
      ],
      "stateMutability": "pure",
      "type": "function"
    },
    {
      "inputs": [
        {
          "internalType": "address",
          "name": "_addrOriginNftContract",
          "type": "address"
        },
        {
          "internalType": "uint256",
          "name": "_nftId",
          "type": "uint256"
        }
      ],
      "name": "getHeldNFT",
      "outputs": [
        {
          "internalType": "bool",
          "name": "",
          "type": "bool"
        }
      ],
      "stateMutability": "view",
      "type": "function"
    },
    {
      "inputs": [],
      "name": "goerliChainId",
      "outputs": [
        {
          "internalType": "uint32",
          "name": "",
          "type": "uint32"
        }
      ],
      "stateMutability": "view",
      "type": "function"
    },
    {
      "inputs": [
        {
          "internalType": "address",
          "name": "operator",
          "type": "address"
        },
        {
          "internalType": "address",
          "name": "from",
          "type": "address"
        },
        {
          "internalType": "uint256",
          "name": "tokenId",
          "type": "uint256"
        },
        {
          "internalType": "bytes",
          "name": "data",
          "type": "bytes"
        }
      ],
      "name": "onERC721Received",
      "outputs": [
        {
          "internalType": "bytes4",
          "name": "",
          "type": "bytes4"
        }
      ],
      "stateMutability": "nonpayable",
      "type": "function"
    },
    {
      "inputs": [
        {
          "internalType": "address",
          "name": "originAddress",
          "type": "address"
        },
        {
          "internalType": "uint32",
          "name": "originNetwork",
          "type": "uint32"
        },
        {
          "internalType": "bytes",
          "name": "data",
          "type": "bytes"
        }
      ],
      "name": "onMessageReceived",
      "outputs": [],
      "stateMutability": "payable",
      "type": "function"
    },
    {
      "inputs": [],
      "name": "owner",
      "outputs": [
        {
          "internalType": "address",
          "name": "",
          "type": "address"
        }
      ],
      "stateMutability": "view",
      "type": "function"
    },
    {
      "inputs": [],
      "name": "polygonChainIdZK",
      "outputs": [
        {
          "internalType": "uint32",
          "name": "",
          "type": "uint32"
        }
      ],
      "stateMutability": "view",
      "type": "function"
    },
    {
      "inputs": [],
      "name": "polygonzkEVMBridgeContractL1",
      "outputs": [
        {
          "internalType": "address",
          "name": "",
          "type": "address"
        }
      ],
      "stateMutability": "view",
      "type": "function"
    },
    {
      "inputs": [],
      "name": "polygonzkEVMBridgeContractL2",
      "outputs": [
        {
          "internalType": "address",
          "name": "",
          "type": "address"
        }
      ],
      "stateMutability": "view",
      "type": "function"
    },
    {
      "inputs": [],
      "name": "renounceOwnership",
      "outputs": [],
      "stateMutability": "nonpayable",
      "type": "function"
    },
    {
      "inputs": [
        {
          "internalType": "uint256",
          "name": "",
          "type": "uint256"
        }
      ],
      "name": "sentPayload",
      "outputs": [
        {
          "internalType": "bytes32",
          "name": "",
          "type": "bytes32"
        }
      ],
      "stateMutability": "view",
      "type": "function"
    },
    {
      "inputs": [
        {
          "internalType": "address",
          "name": "",
          "type": "address"
        }
      ],
      "name": "sisterContract",
      "outputs": [
        {
          "internalType": "address",
          "name": "",
          "type": "address"
        }
      ],
      "stateMutability": "view",
      "type": "function"
    },
    {
      "inputs": [
        {
          "internalType": "uint256",
          "name": "",
          "type": "uint256"
        }
      ],
      "name": "storageSlotsBridgeRequest",
      "outputs": [
        {
          "internalType": "bytes32",
          "name": "",
          "type": "bytes32"
        }
      ],
      "stateMutability": "view",
      "type": "function"
    },
    {
      "inputs": [
        {
          "internalType": "address",
          "name": "_to",
          "type": "address"
        },
        {
          "internalType": "bytes",
          "name": "_calldata",
          "type": "bytes"
        }
      ],
      "name": "testMessaging",
      "outputs": [],
      "stateMutability": "nonpayable",
      "type": "function"
    },
    {
      "inputs": [],
      "name": "totalRequestsSent",
      "outputs": [
        {
          "internalType": "uint256",
          "name": "",
          "type": "uint256"
        }
      ],
      "stateMutability": "view",
      "type": "function"
    },
    {
      "inputs": [
        {
          "internalType": "address",
          "name": "newOwner",
          "type": "address"
        }
      ],
      "name": "transferOwnership",
      "outputs": [],
      "stateMutability": "nonpayable",
      "type": "function"
    }
  ],
  "bytecode": "0x608060405273f6beeebb578e214ca9e23b0e9683454ff88ed2a7600360006101000a81548173ffffffffffffffffffffffffffffffffffffffff021916908373ffffffffffffffffffffffffffffffffffffffff16021790555073f6beeebb578e214ca9e23b0e9683454ff88ed2a7600460006101000a81548173ffffffffffffffffffffffffffffffffffffffff021916908373ffffffffffffffffffffffffffffffffffffffff1602179055506005600460146101000a81548163ffffffff021916908363ffffffff1602179055506105a2600460186101000a81548163ffffffff021916908363ffffffff16021790555060016005556000600760146101000a81548160ff0219169083151502179055503480156200012057600080fd5b506040516200264338038062002643833981810160405281019062000146919062000428565b620001666200015a6200031c60201b60201c565b6200032460201b60201c565b8060058190555060018114156200024157600360009054906101000a900473ffffffffffffffffffffffffffffffffffffffff16600660006101000a81548173ffffffffffffffffffffffffffffffffffffffff021916908373ffffffffffffffffffffffffffffffffffffffff160217905550600460149054906101000a900463ffffffff16600760156101000a81548163ffffffff021916908363ffffffff160217905550600460189054906101000a900463ffffffff16600760196101000a81548163ffffffff021916908363ffffffff1602179055505b60028114156200031557600460009054906101000a900473ffffffffffffffffffffffffffffffffffffffff16600660006101000a81548173ffffffffffffffffffffffffffffffffffffffff021916908373ffffffffffffffffffffffffffffffffffffffff160217905550600460189054906101000a900463ffffffff16600760156101000a81548163ffffffff021916908363ffffffff160217905550600460149054906101000a900463ffffffff16600760196101000a81548163ffffffff021916908363ffffffff1602179055505b506200045a565b600033905090565b60008060009054906101000a900473ffffffffffffffffffffffffffffffffffffffff169050816000806101000a81548173ffffffffffffffffffffffffffffffffffffffff021916908373ffffffffffffffffffffffffffffffffffffffff1602179055508173ffffffffffffffffffffffffffffffffffffffff168173ffffffffffffffffffffffffffffffffffffffff167f8be0079c531659141344cd1fd0a4f28419497f9722a3daafe3b4186f6b6457e060405160405180910390a35050565b600080fd5b6000819050919050565b6200040281620003ed565b81146200040e57600080fd5b50565b6000815190506200042281620003f7565b92915050565b600060208284031215620004415762000440620003e8565b5b6000620004518482850162000411565b91505092915050565b6121d9806200046a6000396000f3fe6080604052600436106101b75760003560e01c80638da5cb5b116100ec578063b6ed4a191161008a578063cfb6961611610064578063cfb696161461062b578063dcb702a214610656578063e2ff21c814610693578063f2fde38b146106bc576101b7565b8063b6ed4a1914610598578063c8f52a04146105d5578063cd803c6514610600576101b7565b806394ea6f21116100c657806394ea6f21146104c8578063abeae677146104f3578063b2e52d4314610530578063b5e2a0151461056d576101b7565b80638da5cb5b146104475780638e5b11dc1461047257806393cf1c7d1461049d576101b7565b806344eee0c8116101595780635826a171116101335780635826a1711461039d578063598bfa38146103dc5780636cbadbfa14610405578063715018a614610430576101b7565b806344eee0c81461030a5780634abf820414610347578063503d07eb14610372576101b7565b8063150b7a0211610195578063150b7a021461024b5780631806b5f214610288578063384e8481146102a45780633c784ac4146102e1576101b7565b80630abccc33146101bc5780630d88e877146101e55780630e2d7ebf14610222575b600080fd5b3480156101c857600080fd5b506101e360048036038101906101de9190611701565b6106e5565b005b3480156101f157600080fd5b5061020c60048036038101906102079190611793565b6106e9565b60405161021991906117d9565b60405180910390f35b34801561022e57600080fd5b5061024960048036038101906102449190611882565b610701565b005b34801561025757600080fd5b50610272600480360381019061026d919061195c565b61081e565b60405161027f9190611a1f565b60405180910390f35b6102a2600480360381019061029d9190611a3a565b610a54565b005b3480156102b057600080fd5b506102cb60048036038101906102c69190611aa9565b610b0d565b6040516102d89190611ae5565b60405180910390f35b3480156102ed57600080fd5b5061030860048036038101906103039190611aa9565b610b40565b005b34801561031657600080fd5b50610331600480360381019061032c9190611793565b610bc1565b60405161033e91906117d9565b60405180910390f35b34801561035357600080fd5b5061035c610bd9565b6040516103699190611b0f565b60405180910390f35b34801561037e57600080fd5b50610387610bdf565b6040516103949190611ae5565b60405180910390f35b3480156103a957600080fd5b506103c460048036038101906103bf9190611b2a565b610c05565b6040516103d393929190611b57565b60405180910390f35b3480156103e857600080fd5b5061040360048036038101906103fe9190611aa9565b610c46565b005b34801561041157600080fd5b5061041a610cfd565b6040516104279190611b9d565b60405180910390f35b34801561043c57600080fd5b50610445610d13565b005b34801561045357600080fd5b5061045c610d27565b6040516104699190611ae5565b60405180910390f35b34801561047e57600080fd5b50610487610d50565b6040516104949190611b9d565b60405180910390f35b3480156104a957600080fd5b506104b2610d66565b6040516104bf9190611b9d565b60405180910390f35b3480156104d457600080fd5b506104dd610d7c565b6040516104ea9190611b9d565b60405180910390f35b3480156104ff57600080fd5b5061051a60048036038101906105159190611bb8565b610d92565b60405161052791906117d9565b60405180910390f35b34801561053c57600080fd5b5061055760048036038101906105529190611793565b610dde565b6040516105649190611ae5565b60405180910390f35b34801561057957600080fd5b50610582610e11565b60405161058f9190611ae5565b60405180910390f35b3480156105a457600080fd5b506105bf60048036038101906105ba9190611793565b610e37565b6040516105cc9190611ae5565b60405180910390f35b3480156105e157600080fd5b506105ea610e6a565b6040516105f79190611ae5565b60405180910390f35b34801561060c57600080fd5b50610615610e90565b6040516106229190611b0f565b60405180910390f35b34801561063757600080fd5b50610640610e96565b60405161064d9190611ae5565b60405180910390f35b34801561066257600080fd5b5061067d60048036038101906106789190611c0b565b610ebc565b60405161068a9190611c66565b60405180910390f35b34801561069f57600080fd5b506106ba60048036038101906106b59190611701565b610f24565b005b3480156106c857600080fd5b506106e360048036038101906106de9190611aa9565b610f32565b005b5050565b600a6020528060005260406000206000915090505481565b600160009054906101000a900473ffffffffffffffffffffffffffffffffffffffff1673ffffffffffffffffffffffffffffffffffffffff16632d2c9d9485858585600760199054906101000a900463ffffffff16600760009054906101000a900473ffffffffffffffffffffffffffffffffffffffff1660023060008f60405160200161078f9190611ca2565b6040516020818303038152906040526040518b63ffffffff1660e01b81526004016107c39a99989796959493929190611dd6565b600060405180830381600087803b1580156107dd57600080fd5b505af11580156107f1573d6000803e3d6000fd5b50505050600080600061080388610c05565b925092509250610814838383610fb6565b5050505050505050565b6000803390506000610831828888610d92565b905080600d6000600e5481526020019081526020016000208190555086600b6000600e54815260200190815260200160002060006101000a81548173ffffffffffffffffffffffffffffffffffffffff021916908373ffffffffffffffffffffffffffffffffffffffff16021790555033600c6000600e54815260200190815260200160002060006101000a81548173ffffffffffffffffffffffffffffffffffffffff021916908373ffffffffffffffffffffffffffffffffffffffff160217905550803373ffffffffffffffffffffffffffffffffffffffff167fee05a900e71dee4e0e610e4ee878f3eb14ca0ab88a8fae665a66fb8a6cebac8d60405160405180910390a3600e600081548092919061094c90611eaf565b91905055506001600860008473ffffffffffffffffffffffffffffffffffffffff1673ffffffffffffffffffffffffffffffffffffffff168152602001908152602001600020600088815260200190815260200160002060006101000a81548160ff021916908315150217905550857f9f511ff5d3ffbc7a0774e43a1c5c183519d2da873aeaea2f12cff2bdad362e5c88336040516109ec929190611ef8565b60405180910390a2610a3f600760009054906101000a900473ffffffffffffffffffffffffffffffffffffffff1682604051602001610a2b9190611ca2565b604051602081830303815290604052611352565b63150b7a0260e01b9250505095945050505050565b600760009054906101000a900473ffffffffffffffffffffffffffffffffffffffff1673ffffffffffffffffffffffffffffffffffffffff168373ffffffffffffffffffffffffffffffffffffffff1614610aae57600080fd5b600360009054906101000a900473ffffffffffffffffffffffffffffffffffffffff1673ffffffffffffffffffffffffffffffffffffffff163373ffffffffffffffffffffffffffffffffffffffff1614610b0857600080fd5b505050565b60096020528060005260406000206000915054906101000a900473ffffffffffffffffffffffffffffffffffffffff1681565b80600960003373ffffffffffffffffffffffffffffffffffffffff1673ffffffffffffffffffffffffffffffffffffffff16815260200190815260200160002060006101000a81548173ffffffffffffffffffffffffffffffffffffffff021916908373ffffffffffffffffffffffffffffffffffffffff16021790555050565b600d6020528060005260406000206000915090505481565b600e5481565b600360009054906101000a900473ffffffffffffffffffffffffffffffffffffffff1681565b60008060008060608560001c901c9050600060c060a08760001c901b901c9050600063ffffffff8760001c1690508282829550955095505050509193909250565b610c4e6113ff565b600760149054906101000a900460ff1615610c9e576040517f08c379a0000000000000000000000000000000000000000000000000000000008152600401610c9590611fa4565b60405180910390fd5b6001600760146101000a81548160ff02191690831515021790555080600760006101000a81548173ffffffffffffffffffffffffffffffffffffffff021916908373ffffffffffffffffffffffffffffffffffffffff16021790555050565b600760159054906101000a900463ffffffff1681565b610d1b6113ff565b610d25600061147d565b565b60008060009054906101000a900473ffffffffffffffffffffffffffffffffffffffff16905090565b600460189054906101000a900463ffffffff1681565b600760199054906101000a900463ffffffff1681565b600460149054906101000a900463ffffffff1681565b6000808260208573ffffffffffffffffffffffffffffffffffffffff16901b60608773ffffffffffffffffffffffffffffffffffffffff16901b171760001b9050809150509392505050565b600c6020528060005260406000206000915054906101000a900473ffffffffffffffffffffffffffffffffffffffff1681565b600760009054906101000a900473ffffffffffffffffffffffffffffffffffffffff1681565b600b6020528060005260406000206000915054906101000a900473ffffffffffffffffffffffffffffffffffffffff1681565b600660009054906101000a900473ffffffffffffffffffffffffffffffffffffffff1681565b60055481565b600460009054906101000a900473ffffffffffffffffffffffffffffffffffffffff1681565b6000600860008473ffffffffffffffffffffffffffffffffffffffff1673ffffffffffffffffffffffffffffffffffffffff168152602001908152602001600020600083815260200190815260200160002060009054906101000a900460ff16905092915050565b610f2e8282611352565b5050565b610f3a6113ff565b600073ffffffffffffffffffffffffffffffffffffffff168173ffffffffffffffffffffffffffffffffffffffff161415610faa576040517f08c379a0000000000000000000000000000000000000000000000000000000008152600401610fa190612036565b60405180910390fd5b610fb38161147d565b50565b600860008373ffffffffffffffffffffffffffffffffffffffff1673ffffffffffffffffffffffffffffffffffffffff168152602001908152602001600020600082815260200190815260200160002060009054906101000a900460ff16156111ab57600960008373ffffffffffffffffffffffffffffffffffffffff1673ffffffffffffffffffffffffffffffffffffffff16815260200190815260200160002060009054906101000a900473ffffffffffffffffffffffffffffffffffffffff1673ffffffffffffffffffffffffffffffffffffffff166342842e0e600960008573ffffffffffffffffffffffffffffffffffffffff1673ffffffffffffffffffffffffffffffffffffffff16815260200190815260200160002060009054906101000a900473ffffffffffffffffffffffffffffffffffffffff1685846040518463ffffffff1660e01b815260040161111493929190611b57565b600060405180830381600087803b15801561112e57600080fd5b505af1158015611142573d6000803e3d6000fd5b50505050600860008373ffffffffffffffffffffffffffffffffffffffff1673ffffffffffffffffffffffffffffffffffffffff168152602001908152602001600020600082815260200190815260200160002060006101000a81549060ff021916905561134d565b600073ffffffffffffffffffffffffffffffffffffffff16600960008473ffffffffffffffffffffffffffffffffffffffff1673ffffffffffffffffffffffffffffffffffffffff16815260200190815260200160002060009054906101000a900473ffffffffffffffffffffffffffffffffffffffff1673ffffffffffffffffffffffffffffffffffffffff16141561127a576040517f08c379a0000000000000000000000000000000000000000000000000000000008152600401611271906120a2565b60405180910390fd5b6000600960008473ffffffffffffffffffffffffffffffffffffffff1673ffffffffffffffffffffffffffffffffffffffff16815260200190815260200160002060009054906101000a900473ffffffffffffffffffffffffffffffffffffffff1690508073ffffffffffffffffffffffffffffffffffffffff1663d252e19983866040518363ffffffff1660e01b81526004016113199291906120c2565b600060405180830381600087803b15801561133357600080fd5b505af1158015611347573d6000803e3d6000fd5b50505050505b505050565b6000600360009054906101000a900473ffffffffffffffffffffffffffffffffffffffff169050600060055490506000600190508273ffffffffffffffffffffffffffffffffffffffff1663240ff37834848885896040518663ffffffff1660e01b81526004016113c694939291906120eb565b6000604051808303818588803b1580156113df57600080fd5b505af11580156113f3573d6000803e3d6000fd5b50505050505050505050565b611407611541565b73ffffffffffffffffffffffffffffffffffffffff16611425610d27565b73ffffffffffffffffffffffffffffffffffffffff161461147b576040517f08c379a000000000000000000000000000000000000000000000000000000000815260040161147290612183565b60405180910390fd5b565b60008060009054906101000a900473ffffffffffffffffffffffffffffffffffffffff169050816000806101000a81548173ffffffffffffffffffffffffffffffffffffffff021916908373ffffffffffffffffffffffffffffffffffffffff1602179055508173ffffffffffffffffffffffffffffffffffffffff168173ffffffffffffffffffffffffffffffffffffffff167f8be0079c531659141344cd1fd0a4f28419497f9722a3daafe3b4186f6b6457e060405160405180910390a35050565b600033905090565b6000604051905090565b600080fd5b600080fd5b600073ffffffffffffffffffffffffffffffffffffffff82169050919050565b60006115888261155d565b9050919050565b6115988161157d565b81146115a357600080fd5b50565b6000813590506115b58161158f565b92915050565b600080fd5b600080fd5b6000601f19601f8301169050919050565b7f4e487b7100000000000000000000000000000000000000000000000000000000600052604160045260246000fd5b61160e826115c5565b810181811067ffffffffffffffff8211171561162d5761162c6115d6565b5b80604052505050565b6000611640611549565b905061164c8282611605565b919050565b600067ffffffffffffffff82111561166c5761166b6115d6565b5b611675826115c5565b9050602081019050919050565b82818337600083830152505050565b60006116a461169f84611651565b611636565b9050828152602081018484840111156116c0576116bf6115c0565b5b6116cb848285611682565b509392505050565b600082601f8301126116e8576116e76115bb565b5b81356116f8848260208601611691565b91505092915050565b6000806040838503121561171857611717611553565b5b6000611726858286016115a6565b925050602083013567ffffffffffffffff81111561174757611746611558565b5b611753858286016116d3565b9150509250929050565b6000819050919050565b6117708161175d565b811461177b57600080fd5b50565b60008135905061178d81611767565b92915050565b6000602082840312156117a9576117a8611553565b5b60006117b78482850161177e565b91505092915050565b6000819050919050565b6117d3816117c0565b82525050565b60006020820190506117ee60008301846117ca565b92915050565b6117fd816117c0565b811461180857600080fd5b50565b60008135905061181a816117f4565b92915050565b600080fd5b60008190508260208002820111156118405761183f611820565b5b92915050565b600063ffffffff82169050919050565b61185f81611846565b811461186a57600080fd5b50565b60008135905061187c81611856565b92915050565b6000806000806000610480868803121561189f5761189e611553565b5b60006118ad8882890161180b565b95505060206118be88828901611825565b9450506104206118d08882890161186d565b9350506104406118e28882890161180b565b9250506104606118f48882890161180b565b9150509295509295909350565b600080fd5b60008083601f84011261191c5761191b6115bb565b5b8235905067ffffffffffffffff81111561193957611938611901565b5b60208301915083600182028301111561195557611954611820565b5b9250929050565b60008060008060006080868803121561197857611977611553565b5b6000611986888289016115a6565b9550506020611997888289016115a6565b94505060406119a88882890161177e565b935050606086013567ffffffffffffffff8111156119c9576119c8611558565b5b6119d588828901611906565b92509250509295509295909350565b60007fffffffff0000000000000000000000000000000000000000000000000000000082169050919050565b611a19816119e4565b82525050565b6000602082019050611a346000830184611a10565b92915050565b600080600060608486031215611a5357611a52611553565b5b6000611a61868287016115a6565b9350506020611a728682870161186d565b925050604084013567ffffffffffffffff811115611a9357611a92611558565b5b611a9f868287016116d3565b9150509250925092565b600060208284031215611abf57611abe611553565b5b6000611acd848285016115a6565b91505092915050565b611adf8161157d565b82525050565b6000602082019050611afa6000830184611ad6565b92915050565b611b098161175d565b82525050565b6000602082019050611b246000830184611b00565b92915050565b600060208284031215611b4057611b3f611553565b5b6000611b4e8482850161180b565b91505092915050565b6000606082019050611b6c6000830186611ad6565b611b796020830185611ad6565b611b866040830184611b00565b949350505050565b611b9781611846565b82525050565b6000602082019050611bb26000830184611b8e565b92915050565b600080600060608486031215611bd157611bd0611553565b5b6000611bdf868287016115a6565b9350506020611bf0868287016115a6565b9250506040611c018682870161177e565b9150509250925092565b60008060408385031215611c2257611c21611553565b5b6000611c30858286016115a6565b9250506020611c418582860161177e565b9150509250929050565b60008115159050919050565b611c6081611c4b565b82525050565b6000602082019050611c7b6000830184611c57565b92915050565b6000819050919050565b611c9c611c97826117c0565b611c81565b82525050565b6000611cae8284611c8b565b60208201915081905092915050565b611cca6104008383611682565b5050565b6000819050919050565b6000819050919050565b6000611cfd611cf8611cf384611cce565b611cd8565b611846565b9050919050565b611d0d81611ce2565b82525050565b6000819050919050565b6000611d38611d33611d2e84611d13565b611cd8565b61175d565b9050919050565b611d4881611d1d565b82525050565b600081519050919050565b600082825260208201905092915050565b60005b83811015611d88578082015181840152602081019050611d6d565b83811115611d97576000848401525b50505050565b6000611da882611d4e565b611db28185611d59565b9350611dc2818560208601611d6a565b611dcb816115c5565b840191505092915050565b600061052082019050611dec600083018d611cbd565b611dfa61040083018c611b8e565b611e0861042083018b6117ca565b611e1661044083018a6117ca565b611e24610460830189611b8e565b611e32610480830188611ad6565b611e406104a0830187611d04565b611e4e6104c0830186611ad6565b611e5c6104e0830185611d3f565b818103610500830152611e6f8184611d9d565b90509b9a5050505050505050505050565b7f4e487b7100000000000000000000000000000000000000000000000000000000600052601160045260246000fd5b6000611eba8261175d565b91507fffffffffffffffffffffffffffffffffffffffffffffffffffffffffffffffff821415611eed57611eec611e80565b5b600182019050919050565b6000604082019050611f0d6000830185611ad6565b611f1a6020830184611ad6565b9392505050565b600082825260208201905092915050565b7f4120636f6e7472616374206973206120636f6e7472616374206973206120636f60008201527f6e74726163742100000000000000000000000000000000000000000000000000602082015250565b6000611f8e602783611f21565b9150611f9982611f32565b604082019050919050565b60006020820190508181036000830152611fbd81611f81565b9050919050565b7f4f776e61626c653a206e6577206f776e657220697320746865207a65726f206160008201527f6464726573730000000000000000000000000000000000000000000000000000602082015250565b6000612020602683611f21565b915061202b82611fc4565b604082019050919050565b6000602082019050818103600083015261204f81612013565b9050919050565b7f6e6f2073697374657220636f6e74726163742073706563696669656421000000600082015250565b600061208c601d83611f21565b915061209782612056565b602082019050919050565b600060208201905081810360008301526120bb8161207f565b9050919050565b60006040820190506120d76000830185611b00565b6120e46020830184611ad6565b9392505050565b60006080820190506121006000830187611b8e565b61210d6020830186611ad6565b61211a6040830185611c57565b818103606083015261212c8184611d9d565b905095945050505050565b7f4f776e61626c653a2063616c6c6572206973206e6f7420746865206f776e6572600082015250565b600061216d602083611f21565b915061217882612137565b602082019050919050565b6000602082019050818103600083015261219c81612160565b905091905056fea2646970667358221220ccb9be8c88263f65a8f96cc89c1bdf3cd110e31fb13040f68b59f22c1ca3531464736f6c63430008090033",
  "linkReferences": {},
  "deployedLinkReferences": {}
}