{
  "_format": "hh-sol-artifact-1",
  "contractName": "openAccessNFTBridge",
  "sourceName": "contracts/polygon_zkEVM_bridgeL1.sol",
  "abi": [
    {
      "inputs": [
        {
          "internalType": "uint256",
          "name": "_chainType",
          "type": "uint256"
        }
      ],
      "stateMutability": "nonpayable",
      "type": "constructor"
    },
    {
      "anonymous": false,
      "inputs": [
        {
          "indexed": true,
          "internalType": "address",
          "name": "previousOwner",
          "type": "address"
        },
        {
          "indexed": true,
          "internalType": "address",
          "name": "newOwner",
          "type": "address"
        }
      ],
      "name": "OwnershipTransferred",
      "type": "event"
    },
    {
      "anonymous": false,
      "inputs": [
        {
          "indexed": true,
          "internalType": "address",
          "name": "sender",
          "type": "address"
        },
        {
          "indexed": true,
          "internalType": "bytes32",
          "name": "dataPayload",
          "type": "bytes32"
        }
      ],
      "name": "bridgeData",
      "type": "event"
    },
    {
      "anonymous": false,
      "inputs": [
        {
          "indexed": false,
          "internalType": "address",
          "name": "owner",
          "type": "address"
        },
        {
          "indexed": false,
          "internalType": "address",
          "name": "indexednftContract",
          "type": "address"
        },
        {
          "indexed": true,
          "internalType": "uint256",
          "name": "nftId",
          "type": "uint256"
        }
      ],
      "name": "bridgeRequestSent",
      "type": "event"
    },
    {
      "anonymous": false,
      "inputs": [
        {
          "indexed": false,
          "internalType": "address",
          "name": "owner",
          "type": "address"
        },
        {
          "indexed": false,
          "internalType": "address",
          "name": "indexednftContract",
          "type": "address"
        },
        {
          "indexed": true,
          "internalType": "uint256",
          "name": "nftId",
          "type": "uint256"
        }
      ],
      "name": "bridgeSucess",
      "type": "event"
    },
    {
      "inputs": [
        {
          "internalType": "address",
          "name": "_SisterContractInit",
          "type": "address"
        }
      ],
      "name": "addSisterBridgeContract",
      "outputs": [],
      "stateMutability": "nonpayable",
      "type": "function"
    },
    {
      "inputs": [
        {
          "internalType": "address",
          "name": "_newSisterContract",
          "type": "address"
        }
      ],
      "name": "addSisterContract",
      "outputs": [],
      "stateMutability": "nonpayable",
      "type": "function"
    },
    {
      "inputs": [
        {
          "internalType": "address",
          "name": "_newSisterContract",
          "type": "address"
        },
        {
          "internalType": "bytes",
          "name": "_signature",
          "type": "bytes"
        }
      ],
      "name": "addSisterContractViaSignature",
      "outputs": [],
      "stateMutability": "nonpayable",
      "type": "function"
    },
    {
      "inputs": [
        {
          "internalType": "uint256",
          "name": "",
          "type": "uint256"
        }
      ],
      "name": "bridgeRequestInitiatorSender",
      "outputs": [
        {
          "internalType": "address",
          "name": "",
          "type": "address"
        }
      ],
      "stateMutability": "view",
      "type": "function"
    },
    {
      "inputs": [
        {
          "internalType": "uint256",
          "name": "",
          "type": "uint256"
        }
      ],
      "name": "bridgeRequestInitiatorUser",
      "outputs": [
        {
          "internalType": "address",
          "name": "",
          "type": "address"
        }
      ],
      "stateMutability": "view",
      "type": "function"
    },
    {
      "inputs": [
        {
          "internalType": "bytes32",
          "name": "_dataPayload",
          "type": "bytes32"
        },
        {
          "internalType": "bytes32[32]",
          "name": "_smtProof",
          "type": "bytes32[32]"
        },
        {
          "internalType": "uint32",
          "name": "index",
          "type": "uint32"
        },
        {
          "internalType": "bytes32",
          "name": "mainnetExitRoot",
          "type": "bytes32"
        },
        {
          "internalType": "bytes32",
          "name": "rollupExitRoot",
          "type": "bytes32"
        }
      ],
      "name": "claimBridged",
      "outputs": [],
      "stateMutability": "nonpayable",
      "type": "function"
    },
    {
      "inputs": [],
      "name": "currentBridgeSignalContract",
      "outputs": [
        {
          "internalType": "address",
          "name": "",
          "type": "address"
        }
      ],
      "stateMutability": "view",
      "type": "function"
    },
    {
      "inputs": [],
      "name": "currentChainId",
      "outputs": [
        {
          "internalType": "uint32",
          "name": "",
          "type": "uint32"
        }
      ],
      "stateMutability": "view",
      "type": "function"
    },
    {
      "inputs": [],
      "name": "currentChainType",
      "outputs": [
        {
          "internalType": "uint256",
          "name": "",
          "type": "uint256"
        }
      ],
      "stateMutability": "view",
      "type": "function"
    },
    {
      "inputs": [],
      "name": "currentSisterChainId",
      "outputs": [
        {
          "internalType": "uint32",
          "name": "",
          "type": "uint32"
        }
      ],
      "stateMutability": "view",
      "type": "function"
    },
    {
      "inputs": [],
      "name": "currentSisterContract",
      "outputs": [
        {
          "internalType": "address",
          "name": "",
          "type": "address"
        }
      ],
      "stateMutability": "view",
      "type": "function"
    },
    {
      "inputs": [
        {
          "internalType": "bytes32",
          "name": "encodedMessageNFTBridge",
          "type": "bytes32"
        }
      ],
      "name": "decodeMessagePayload",
      "outputs": [
        {
          "internalType": "address",
          "name": "",
          "type": "address"
        },
        {
          "internalType": "address",
          "name": "",
          "type": "address"
        },
        {
          "internalType": "uint256",
          "name": "",
          "type": "uint256"
        }
      ],
      "stateMutability": "pure",
      "type": "function"
    },
    {
      "inputs": [
        {
          "internalType": "address",
          "name": "_addrOwner",
          "type": "address"
        },
        {
          "internalType": "address",
          "name": "_addrOriginNftContract",
          "type": "address"
        },
        {
          "internalType": "uint256",
          "name": "_nftId",
          "type": "uint256"
        }
      ],
      "name": "encodeMessagePayload",
      "outputs": [
        {
          "internalType": "bytes32",
          "name": "",
          "type": "bytes32"
        }
      ],
      "stateMutability": "pure",
      "type": "function"
    },
    {
      "inputs": [],
      "name": "ethereumGoerliBridgeContract",
      "outputs": [
        {
          "internalType": "address",
          "name": "",
          "type": "address"
        }
      ],
      "stateMutability": "view",
      "type": "function"
    },
    {
      "inputs": [],
      "name": "goerliChainId",
      "outputs": [
        {
          "internalType": "uint32",
          "name": "",
          "type": "uint32"
        }
      ],
      "stateMutability": "view",
      "type": "function"
    },
    {
      "inputs": [
        {
          "internalType": "address",
          "name": "operator",
          "type": "address"
        },
        {
          "internalType": "address",
          "name": "from",
          "type": "address"
        },
        {
          "internalType": "uint256",
          "name": "tokenId",
          "type": "uint256"
        },
        {
          "internalType": "bytes",
          "name": "data",
          "type": "bytes"
        }
      ],
      "name": "onERC721Received",
      "outputs": [
        {
          "internalType": "bytes4",
          "name": "",
          "type": "bytes4"
        }
      ],
      "stateMutability": "nonpayable",
      "type": "function"
    },
    {
      "inputs": [],
      "name": "owner",
      "outputs": [
        {
          "internalType": "address",
          "name": "",
          "type": "address"
        }
      ],
      "stateMutability": "view",
      "type": "function"
    },
    {
      "inputs": [],
      "name": "polygonChainIdZK",
      "outputs": [
        {
          "internalType": "uint32",
          "name": "",
          "type": "uint32"
        }
      ],
      "stateMutability": "view",
      "type": "function"
    },
    {
      "inputs": [],
      "name": "polygonzkEVMBridgeContractL1",
      "outputs": [
        {
          "internalType": "address",
          "name": "",
          "type": "address"
        }
      ],
      "stateMutability": "view",
      "type": "function"
    },
    {
      "inputs": [],
      "name": "polygonzkEVMBridgeContractL2",
      "outputs": [
        {
          "internalType": "address",
          "name": "",
          "type": "address"
        }
      ],
      "stateMutability": "view",
      "type": "function"
    },
    {
      "inputs": [],
      "name": "renounceOwnership",
      "outputs": [],
      "stateMutability": "nonpayable",
      "type": "function"
    },
    {
      "inputs": [
        {
          "internalType": "uint256",
          "name": "",
          "type": "uint256"
        }
      ],
      "name": "sentPayload",
      "outputs": [
        {
          "internalType": "bytes32",
          "name": "",
          "type": "bytes32"
        }
      ],
      "stateMutability": "view",
      "type": "function"
    },
    {
      "inputs": [
        {
          "internalType": "address",
          "name": "",
          "type": "address"
        }
      ],
      "name": "sisterContract",
      "outputs": [
        {
          "internalType": "address",
          "name": "",
          "type": "address"
        }
      ],
      "stateMutability": "view",
      "type": "function"
    },
    {
      "inputs": [
        {
          "internalType": "uint256",
          "name": "",
          "type": "uint256"
        }
      ],
      "name": "storageSlotsBridgeRequest",
      "outputs": [
        {
          "internalType": "bytes32",
          "name": "",
          "type": "bytes32"
        }
      ],
      "stateMutability": "view",
      "type": "function"
    },
    {
      "inputs": [],
      "name": "totalRequestsSent",
      "outputs": [
        {
          "internalType": "uint256",
          "name": "",
          "type": "uint256"
        }
      ],
      "stateMutability": "view",
      "type": "function"
    },
    {
      "inputs": [
        {
          "internalType": "address",
          "name": "newOwner",
          "type": "address"
        }
      ],
      "name": "transferOwnership",
      "outputs": [],
      "stateMutability": "nonpayable",
      "type": "function"
    }
  ],
  "bytecode": "0x608060405273f6beeebb578e214ca9e23b0e9683454ff88ed2a7600360006101000a81548173ffffffffffffffffffffffffffffffffffffffff021916908373ffffffffffffffffffffffffffffffffffffffff16021790555073f6beeebb578e214ca9e23b0e9683454ff88ed2a7600460006101000a81548173ffffffffffffffffffffffffffffffffffffffff021916908373ffffffffffffffffffffffffffffffffffffffff1602179055507311013a48ad87a528d23cda25d2c34d7dbda6b46b600560006101000a81548173ffffffffffffffffffffffffffffffffffffffff021916908373ffffffffffffffffffffffffffffffffffffffff16021790555060058060146101000a81548163ffffffff021916908363ffffffff1602179055506105a2600560186101000a81548163ffffffff021916908363ffffffff16021790555060006006556000600860146101000a81548160ff0219169083151502179055503480156200017457600080fd5b506040516200235d3803806200235d83398181016040528101906200019a91906200047c565b620001ba620001ae6200037060201b60201c565b6200037860201b60201c565b8060068190555060018114156200029557600360009054906101000a900473ffffffffffffffffffffffffffffffffffffffff16600760006101000a81548173ffffffffffffffffffffffffffffffffffffffff021916908373ffffffffffffffffffffffffffffffffffffffff160217905550600560149054906101000a900463ffffffff16600860156101000a81548163ffffffff021916908363ffffffff160217905550600560189054906101000a900463ffffffff16600860196101000a81548163ffffffff021916908363ffffffff1602179055505b60028114156200036957600460009054906101000a900473ffffffffffffffffffffffffffffffffffffffff16600760006101000a81548173ffffffffffffffffffffffffffffffffffffffff021916908373ffffffffffffffffffffffffffffffffffffffff160217905550600560189054906101000a900463ffffffff16600860156101000a81548163ffffffff021916908363ffffffff160217905550600560149054906101000a900463ffffffff16600860196101000a81548163ffffffff021916908363ffffffff1602179055505b50620004ae565b600033905090565b60008060009054906101000a900473ffffffffffffffffffffffffffffffffffffffff169050816000806101000a81548173ffffffffffffffffffffffffffffffffffffffff021916908373ffffffffffffffffffffffffffffffffffffffff1602179055508173ffffffffffffffffffffffffffffffffffffffff168173ffffffffffffffffffffffffffffffffffffffff167f8be0079c531659141344cd1fd0a4f28419497f9722a3daafe3b4186f6b6457e060405160405180910390a35050565b600080fd5b6000819050919050565b620004568162000441565b81146200046257600080fd5b50565b60008151905062000476816200044b565b92915050565b6000602082840312156200049557620004946200043c565b5b6000620004a58482850162000465565b91505092915050565b611e9f80620004be6000396000f3fe608060405234801561001057600080fd5b506004361061018e5760003560e01c80638da5cb5b116100de578063b5e2a01511610097578063cd803c6511610071578063cd803c651461049d578063cfb69616146104bb578063dff7acef146104d9578063f2fde38b146104f75761018e565b8063b5e2a01514610431578063b6ed4a191461044f578063c8f52a041461047f5761018e565b80638da5cb5b146103595780638e5b11dc1461037757806393cf1c7d1461039557806394ea6f21146103b3578063abeae677146103d1578063b2e52d43146104015761018e565b806344eee0c81161014b5780635826a171116101255780635826a171146102e3578063598bfa38146103155780636cbadbfa14610331578063715018a61461034f5761018e565b806344eee0c8146102775780634abf8204146102a7578063503d07eb146102c55761018e565b80630abccc33146101935780630d88e877146101af5780630e2d7ebf146101df578063150b7a02146101fb578063384e84811461022b5780633c784ac41461025b575b600080fd5b6101ad60048036038101906101a891906114ba565b610513565b005b6101c960048036038101906101c4919061154c565b610517565b6040516101d69190611592565b60405180910390f35b6101f960048036038101906101f4919061163b565b61052f565b005b61021560048036038101906102109190611715565b61064c565b60405161022291906117d8565b60405180910390f35b610245600480360381019061024091906117f3565b6108bf565b604051610252919061182f565b60405180910390f35b610275600480360381019061027091906117f3565b6108f2565b005b610291600480360381019061028c919061154c565b610973565b60405161029e9190611592565b60405180910390f35b6102af61098b565b6040516102bc9190611859565b60405180910390f35b6102cd610991565b6040516102da919061182f565b60405180910390f35b6102fd60048036038101906102f89190611874565b6109b7565b60405161030c939291906118a1565b60405180910390f35b61032f600480360381019061032a91906117f3565b6109f8565b005b610339610aaf565b60405161034691906118e7565b60405180910390f35b610357610ac5565b005b610361610ad9565b60405161036e919061182f565b60405180910390f35b61037f610b02565b60405161038c91906118e7565b60405180910390f35b61039d610b18565b6040516103aa91906118e7565b60405180910390f35b6103bb610b2e565b6040516103c891906118e7565b60405180910390f35b6103eb60048036038101906103e69190611902565b610b44565b6040516103f89190611592565b60405180910390f35b61041b6004803603810190610416919061154c565b610b90565b604051610428919061182f565b60405180910390f35b610439610bc3565b604051610446919061182f565b60405180910390f35b6104696004803603810190610464919061154c565b610be9565b604051610476919061182f565b60405180910390f35b610487610c1c565b604051610494919061182f565b60405180910390f35b6104a5610c42565b6040516104b29190611859565b60405180910390f35b6104c3610c48565b6040516104d0919061182f565b60405180910390f35b6104e1610c6e565b6040516104ee919061182f565b60405180910390f35b610511600480360381019061050c91906117f3565b610c94565b005b5050565b600b6020528060005260406000206000915090505481565b600160009054906101000a900473ffffffffffffffffffffffffffffffffffffffff1673ffffffffffffffffffffffffffffffffffffffff16632d2c9d9485858585600860199054906101000a900463ffffffff16600860009054906101000a900473ffffffffffffffffffffffffffffffffffffffff1660023060008f6040516020016105bd9190611976565b6040516020818303038152906040526040518b63ffffffff1660e01b81526004016105f19a99989796959493929190611aaa565b600060405180830381600087803b15801561060b57600080fd5b505af115801561061f573d6000803e3d6000fd5b505050506000806000610631886109b7565b925092509250610642838383610d18565b5050505050505050565b600080339050600061065f828888610b44565b905080600e6000600f5481526020019081526020016000208190555086600c6000600f54815260200190815260200160002060006101000a81548173ffffffffffffffffffffffffffffffffffffffff021916908373ffffffffffffffffffffffffffffffffffffffff16021790555033600d6000600f54815260200190815260200160002060006101000a81548173ffffffffffffffffffffffffffffffffffffffff021916908373ffffffffffffffffffffffffffffffffffffffff160217905550803373ffffffffffffffffffffffffffffffffffffffff167fee05a900e71dee4e0e610e4ee878f3eb14ca0ab88a8fae665a66fb8a6cebac8d60405160405180910390a3600f600081548092919061077a90611b83565b91905055506001600960008973ffffffffffffffffffffffffffffffffffffffff1673ffffffffffffffffffffffffffffffffffffffff16815260200190815260200160002060008473ffffffffffffffffffffffffffffffffffffffff1673ffffffffffffffffffffffffffffffffffffffff168152602001908152602001600020600088815260200190815260200160002060006101000a81548160ff021916908315150217905550857f9f511ff5d3ffbc7a0774e43a1c5c183519d2da873aeaea2f12cff2bdad362e5c8833604051610857929190611bcc565b60405180910390a26108aa600860009054906101000a900473ffffffffffffffffffffffffffffffffffffffff16826040516020016108969190611976565b60405160208183030381529060405261111a565b63150b7a0260e01b9250505095945050505050565b600a6020528060005260406000206000915054906101000a900473ffffffffffffffffffffffffffffffffffffffff1681565b80600a60003373ffffffffffffffffffffffffffffffffffffffff1673ffffffffffffffffffffffffffffffffffffffff16815260200190815260200160002060006101000a81548173ffffffffffffffffffffffffffffffffffffffff021916908373ffffffffffffffffffffffffffffffffffffffff16021790555050565b600e6020528060005260406000206000915090505481565b600f5481565b600360009054906101000a900473ffffffffffffffffffffffffffffffffffffffff1681565b60008060008060608560001c901c9050600060c060a08760001c901b901c9050600063ffffffff8760001c1690508282829550955095505050509193909250565b610a006111b8565b600860149054906101000a900460ff1615610a50576040517f08c379a0000000000000000000000000000000000000000000000000000000008152600401610a4790611c78565b60405180910390fd5b6001600860146101000a81548160ff02191690831515021790555080600860006101000a81548173ffffffffffffffffffffffffffffffffffffffff021916908373ffffffffffffffffffffffffffffffffffffffff16021790555050565b600860159054906101000a900463ffffffff1681565b610acd6111b8565b610ad76000611236565b565b60008060009054906101000a900473ffffffffffffffffffffffffffffffffffffffff16905090565b600560189054906101000a900463ffffffff1681565b600860199054906101000a900463ffffffff1681565b600560149054906101000a900463ffffffff1681565b6000808260208573ffffffffffffffffffffffffffffffffffffffff16901b60608773ffffffffffffffffffffffffffffffffffffffff16901b171760001b9050809150509392505050565b600d6020528060005260406000206000915054906101000a900473ffffffffffffffffffffffffffffffffffffffff1681565b600860009054906101000a900473ffffffffffffffffffffffffffffffffffffffff1681565b600c6020528060005260406000206000915054906101000a900473ffffffffffffffffffffffffffffffffffffffff1681565b600760009054906101000a900473ffffffffffffffffffffffffffffffffffffffff1681565b60065481565b600460009054906101000a900473ffffffffffffffffffffffffffffffffffffffff1681565b600560009054906101000a900473ffffffffffffffffffffffffffffffffffffffff1681565b610c9c6111b8565b600073ffffffffffffffffffffffffffffffffffffffff168173ffffffffffffffffffffffffffffffffffffffff161415610d0c576040517f08c379a0000000000000000000000000000000000000000000000000000000008152600401610d0390611d0a565b60405180910390fd5b610d1581611236565b50565b600960008473ffffffffffffffffffffffffffffffffffffffff1673ffffffffffffffffffffffffffffffffffffffff1681526020019081526020016000206000600a60008573ffffffffffffffffffffffffffffffffffffffff1673ffffffffffffffffffffffffffffffffffffffff16815260200190815260200160002060009054906101000a900473ffffffffffffffffffffffffffffffffffffffff1673ffffffffffffffffffffffffffffffffffffffff1673ffffffffffffffffffffffffffffffffffffffff168152602001908152602001600020600082815260200190815260200160002060009054906101000a900460ff161561111457600073ffffffffffffffffffffffffffffffffffffffff16600a60008473ffffffffffffffffffffffffffffffffffffffff1673ffffffffffffffffffffffffffffffffffffffff16815260200190815260200160002060009054906101000a900473ffffffffffffffffffffffffffffffffffffffff1673ffffffffffffffffffffffffffffffffffffffff161415610ee6576040517f08c379a0000000000000000000000000000000000000000000000000000000008152600401610edd90611d76565b60405180910390fd5b600a60008373ffffffffffffffffffffffffffffffffffffffff1673ffffffffffffffffffffffffffffffffffffffff16815260200190815260200160002060009054906101000a900473ffffffffffffffffffffffffffffffffffffffff1673ffffffffffffffffffffffffffffffffffffffff166342842e0e600a60008573ffffffffffffffffffffffffffffffffffffffff1673ffffffffffffffffffffffffffffffffffffffff16815260200190815260200160002060009054906101000a900473ffffffffffffffffffffffffffffffffffffffff1685846040518463ffffffff1660e01b8152600401610fe1939291906118a1565b600060405180830381600087803b158015610ffb57600080fd5b505af115801561100f573d6000803e3d6000fd5b50505050600960008473ffffffffffffffffffffffffffffffffffffffff1673ffffffffffffffffffffffffffffffffffffffff1681526020019081526020016000206000600a60008573ffffffffffffffffffffffffffffffffffffffff1673ffffffffffffffffffffffffffffffffffffffff16815260200190815260200160002060009054906101000a900473ffffffffffffffffffffffffffffffffffffffff1673ffffffffffffffffffffffffffffffffffffffff1673ffffffffffffffffffffffffffffffffffffffff168152602001908152602001600020600082815260200190815260200160002060006101000a81549060ff0219169055611115565b5b505050565b600073f6beeebb578e214ca9e23b0e9683454ff88ed2a790506000600190506000600190508273ffffffffffffffffffffffffffffffffffffffff1663240ff37834848885896040518663ffffffff1660e01b815260040161117f9493929190611db1565b6000604051808303818588803b15801561119857600080fd5b505af11580156111ac573d6000803e3d6000fd5b50505050505050505050565b6111c06112fa565b73ffffffffffffffffffffffffffffffffffffffff166111de610ad9565b73ffffffffffffffffffffffffffffffffffffffff1614611234576040517f08c379a000000000000000000000000000000000000000000000000000000000815260040161122b90611e49565b60405180910390fd5b565b60008060009054906101000a900473ffffffffffffffffffffffffffffffffffffffff169050816000806101000a81548173ffffffffffffffffffffffffffffffffffffffff021916908373ffffffffffffffffffffffffffffffffffffffff1602179055508173ffffffffffffffffffffffffffffffffffffffff168173ffffffffffffffffffffffffffffffffffffffff167f8be0079c531659141344cd1fd0a4f28419497f9722a3daafe3b4186f6b6457e060405160405180910390a35050565b600033905090565b6000604051905090565b600080fd5b600080fd5b600073ffffffffffffffffffffffffffffffffffffffff82169050919050565b600061134182611316565b9050919050565b61135181611336565b811461135c57600080fd5b50565b60008135905061136e81611348565b92915050565b600080fd5b600080fd5b6000601f19601f8301169050919050565b7f4e487b7100000000000000000000000000000000000000000000000000000000600052604160045260246000fd5b6113c78261137e565b810181811067ffffffffffffffff821117156113e6576113e561138f565b5b80604052505050565b60006113f9611302565b905061140582826113be565b919050565b600067ffffffffffffffff8211156114255761142461138f565b5b61142e8261137e565b9050602081019050919050565b82818337600083830152505050565b600061145d6114588461140a565b6113ef565b90508281526020810184848401111561147957611478611379565b5b61148484828561143b565b509392505050565b600082601f8301126114a1576114a0611374565b5b81356114b184826020860161144a565b91505092915050565b600080604083850312156114d1576114d061130c565b5b60006114df8582860161135f565b925050602083013567ffffffffffffffff811115611500576114ff611311565b5b61150c8582860161148c565b9150509250929050565b6000819050919050565b61152981611516565b811461153457600080fd5b50565b60008135905061154681611520565b92915050565b6000602082840312156115625761156161130c565b5b600061157084828501611537565b91505092915050565b6000819050919050565b61158c81611579565b82525050565b60006020820190506115a76000830184611583565b92915050565b6115b681611579565b81146115c157600080fd5b50565b6000813590506115d3816115ad565b92915050565b600080fd5b60008190508260208002820111156115f9576115f86115d9565b5b92915050565b600063ffffffff82169050919050565b611618816115ff565b811461162357600080fd5b50565b6000813590506116358161160f565b92915050565b600080600080600061048086880312156116585761165761130c565b5b6000611666888289016115c4565b9550506020611677888289016115de565b94505061042061168988828901611626565b93505061044061169b888289016115c4565b9250506104606116ad888289016115c4565b9150509295509295909350565b600080fd5b60008083601f8401126116d5576116d4611374565b5b8235905067ffffffffffffffff8111156116f2576116f16116ba565b5b60208301915083600182028301111561170e5761170d6115d9565b5b9250929050565b6000806000806000608086880312156117315761173061130c565b5b600061173f8882890161135f565b95505060206117508882890161135f565b945050604061176188828901611537565b935050606086013567ffffffffffffffff81111561178257611781611311565b5b61178e888289016116bf565b92509250509295509295909350565b60007fffffffff0000000000000000000000000000000000000000000000000000000082169050919050565b6117d28161179d565b82525050565b60006020820190506117ed60008301846117c9565b92915050565b6000602082840312156118095761180861130c565b5b60006118178482850161135f565b91505092915050565b61182981611336565b82525050565b60006020820190506118446000830184611820565b92915050565b61185381611516565b82525050565b600060208201905061186e600083018461184a565b92915050565b60006020828403121561188a5761188961130c565b5b6000611898848285016115c4565b91505092915050565b60006060820190506118b66000830186611820565b6118c36020830185611820565b6118d0604083018461184a565b949350505050565b6118e1816115ff565b82525050565b60006020820190506118fc60008301846118d8565b92915050565b60008060006060848603121561191b5761191a61130c565b5b60006119298682870161135f565b935050602061193a8682870161135f565b925050604061194b86828701611537565b9150509250925092565b6000819050919050565b61197061196b82611579565b611955565b82525050565b6000611982828461195f565b60208201915081905092915050565b61199e610400838361143b565b5050565b6000819050919050565b6000819050919050565b60006119d16119cc6119c7846119a2565b6119ac565b6115ff565b9050919050565b6119e1816119b6565b82525050565b6000819050919050565b6000611a0c611a07611a02846119e7565b6119ac565b611516565b9050919050565b611a1c816119f1565b82525050565b600081519050919050565b600082825260208201905092915050565b60005b83811015611a5c578082015181840152602081019050611a41565b83811115611a6b576000848401525b50505050565b6000611a7c82611a22565b611a868185611a2d565b9350611a96818560208601611a3e565b611a9f8161137e565b840191505092915050565b600061052082019050611ac0600083018d611991565b611ace61040083018c6118d8565b611adc61042083018b611583565b611aea61044083018a611583565b611af86104608301896118d8565b611b06610480830188611820565b611b146104a08301876119d8565b611b226104c0830186611820565b611b306104e0830185611a13565b818103610500830152611b438184611a71565b90509b9a5050505050505050505050565b7f4e487b7100000000000000000000000000000000000000000000000000000000600052601160045260246000fd5b6000611b8e82611516565b91507fffffffffffffffffffffffffffffffffffffffffffffffffffffffffffffffff821415611bc157611bc0611b54565b5b600182019050919050565b6000604082019050611be16000830185611820565b611bee6020830184611820565b9392505050565b600082825260208201905092915050565b7f4120636f6e7472616374206973206120636f6e7472616374206973206120636f60008201527f6e74726163742100000000000000000000000000000000000000000000000000602082015250565b6000611c62602783611bf5565b9150611c6d82611c06565b604082019050919050565b60006020820190508181036000830152611c9181611c55565b9050919050565b7f4f776e61626c653a206e6577206f776e657220697320746865207a65726f206160008201527f6464726573730000000000000000000000000000000000000000000000000000602082015250565b6000611cf4602683611bf5565b9150611cff82611c98565b604082019050919050565b60006020820190508181036000830152611d2381611ce7565b9050919050565b7f6e6f2073697374657220636f6e74726163742073706563696669656421000000600082015250565b6000611d60601d83611bf5565b9150611d6b82611d2a565b602082019050919050565b60006020820190508181036000830152611d8f81611d53565b9050919050565b60008115159050919050565b611dab81611d96565b82525050565b6000608082019050611dc660008301876118d8565b611dd36020830186611820565b611de06040830185611da2565b8181036060830152611df28184611a71565b905095945050505050565b7f4f776e61626c653a2063616c6c6572206973206e6f7420746865206f776e6572600082015250565b6000611e33602083611bf5565b9150611e3e82611dfd565b602082019050919050565b60006020820190508181036000830152611e6281611e26565b905091905056fea264697066735822122096cad1dc205d69414a0cba62713d53b5c2e4fce05708d60ea943a94588ce9df364736f6c63430008090033",
  "linkReferences": {},
  "deployedLinkReferences": {}
}