{
  "_format": "hh-sol-artifact-1",
  "contractName": "openAccessNFTBridge",
  "sourceName": "contracts/polygon_zkEVM_bridgeL1.sol",
  "abi": [
    {
      "inputs": [
        {
          "internalType": "uint256",
          "name": "_chainType",
          "type": "uint256"
        }
      ],
      "stateMutability": "nonpayable",
      "type": "constructor"
    },
    {
      "anonymous": false,
      "inputs": [
        {
          "indexed": true,
          "internalType": "address",
          "name": "previousOwner",
          "type": "address"
        },
        {
          "indexed": true,
          "internalType": "address",
          "name": "newOwner",
          "type": "address"
        }
      ],
      "name": "OwnershipTransferred",
      "type": "event"
    },
    {
      "anonymous": false,
      "inputs": [
        {
          "indexed": true,
          "internalType": "address",
          "name": "sender",
          "type": "address"
        },
        {
          "indexed": true,
          "internalType": "bytes32",
          "name": "dataPayload",
          "type": "bytes32"
        }
      ],
      "name": "bridgeData",
      "type": "event"
    },
    {
      "anonymous": false,
      "inputs": [
        {
          "indexed": false,
          "internalType": "address",
          "name": "owner",
          "type": "address"
        },
        {
          "indexed": false,
          "internalType": "address",
          "name": "indexednftContract",
          "type": "address"
        },
        {
          "indexed": true,
          "internalType": "uint256",
          "name": "nftId",
          "type": "uint256"
        }
      ],
      "name": "bridgeRequestSent",
      "type": "event"
    },
    {
      "anonymous": false,
      "inputs": [
        {
          "indexed": false,
          "internalType": "address",
          "name": "owner",
          "type": "address"
        },
        {
          "indexed": false,
          "internalType": "address",
          "name": "indexednftContract",
          "type": "address"
        },
        {
          "indexed": true,
          "internalType": "uint256",
          "name": "nftId",
          "type": "uint256"
        }
      ],
      "name": "bridgeSucess",
      "type": "event"
    },
    {
      "inputs": [
        {
          "internalType": "address",
          "name": "_SisterContractInit",
          "type": "address"
        }
      ],
      "name": "addSisterBridgeContract",
      "outputs": [],
      "stateMutability": "nonpayable",
      "type": "function"
    },
    {
      "inputs": [
        {
          "internalType": "address",
          "name": "_newSisterContract",
          "type": "address"
        }
      ],
      "name": "addSisterContract",
      "outputs": [],
      "stateMutability": "nonpayable",
      "type": "function"
    },
    {
      "inputs": [
        {
          "internalType": "address",
          "name": "_newSisterContract",
          "type": "address"
        },
        {
          "internalType": "bytes",
          "name": "_signature",
          "type": "bytes"
        }
      ],
      "name": "addSisterContractViaSignature",
      "outputs": [],
      "stateMutability": "nonpayable",
      "type": "function"
    },
    {
      "inputs": [
        {
          "internalType": "uint256",
          "name": "",
          "type": "uint256"
        }
      ],
      "name": "bridgeRequestInitiatorSender",
      "outputs": [
        {
          "internalType": "address",
          "name": "",
          "type": "address"
        }
      ],
      "stateMutability": "view",
      "type": "function"
    },
    {
      "inputs": [
        {
          "internalType": "uint256",
          "name": "",
          "type": "uint256"
        }
      ],
      "name": "bridgeRequestInitiatorUser",
      "outputs": [
        {
          "internalType": "address",
          "name": "",
          "type": "address"
        }
      ],
      "stateMutability": "view",
      "type": "function"
    },
    {
      "inputs": [
        {
          "internalType": "bytes32",
          "name": "_dataPayload",
          "type": "bytes32"
        },
        {
          "internalType": "bytes32[32]",
          "name": "_smtProof",
          "type": "bytes32[32]"
        },
        {
          "internalType": "uint32",
          "name": "index",
          "type": "uint32"
        },
        {
          "internalType": "bytes32",
          "name": "mainnetExitRoot",
          "type": "bytes32"
        },
        {
          "internalType": "bytes32",
          "name": "rollupExitRoot",
          "type": "bytes32"
        }
      ],
      "name": "claimBridged",
      "outputs": [],
      "stateMutability": "nonpayable",
      "type": "function"
    },
    {
      "inputs": [],
      "name": "currentBridgeSignalContract",
      "outputs": [
        {
          "internalType": "address",
          "name": "",
          "type": "address"
        }
      ],
      "stateMutability": "view",
      "type": "function"
    },
    {
      "inputs": [],
      "name": "currentChainId",
      "outputs": [
        {
          "internalType": "uint32",
          "name": "",
          "type": "uint32"
        }
      ],
      "stateMutability": "view",
      "type": "function"
    },
    {
      "inputs": [],
      "name": "currentChainType",
      "outputs": [
        {
          "internalType": "uint256",
          "name": "",
          "type": "uint256"
        }
      ],
      "stateMutability": "view",
      "type": "function"
    },
    {
      "inputs": [],
      "name": "currentSisterChainId",
      "outputs": [
        {
          "internalType": "uint32",
          "name": "",
          "type": "uint32"
        }
      ],
      "stateMutability": "view",
      "type": "function"
    },
    {
      "inputs": [],
      "name": "currentSisterContract",
      "outputs": [
        {
          "internalType": "address",
          "name": "",
          "type": "address"
        }
      ],
      "stateMutability": "view",
      "type": "function"
    },
    {
      "inputs": [
        {
          "internalType": "bytes32",
          "name": "encodedMessageNFTBridge",
          "type": "bytes32"
        }
      ],
      "name": "decodeMessagePayload",
      "outputs": [
        {
          "internalType": "address",
          "name": "",
          "type": "address"
        },
        {
          "internalType": "address",
          "name": "",
          "type": "address"
        },
        {
          "internalType": "uint256",
          "name": "",
          "type": "uint256"
        }
      ],
      "stateMutability": "pure",
      "type": "function"
    },
    {
      "inputs": [
        {
          "internalType": "address",
          "name": "_addrOwner",
          "type": "address"
        },
        {
          "internalType": "address",
          "name": "_addrOriginNftContract",
          "type": "address"
        },
        {
          "internalType": "uint256",
          "name": "_nftId",
          "type": "uint256"
        }
      ],
      "name": "encodeMessagePayload",
      "outputs": [
        {
          "internalType": "bytes32",
          "name": "",
          "type": "bytes32"
        }
      ],
      "stateMutability": "pure",
      "type": "function"
    },
    {
      "inputs": [],
      "name": "ethereumGoerliBridgeContract",
      "outputs": [
        {
          "internalType": "address",
          "name": "",
          "type": "address"
        }
      ],
      "stateMutability": "view",
      "type": "function"
    },
    {
      "inputs": [
        {
          "internalType": "address",
          "name": "_addrOwner",
          "type": "address"
        },
        {
          "internalType": "address",
          "name": "_addrOriginNftContract",
          "type": "address"
        },
        {
          "internalType": "uint256",
          "name": "_nftId",
          "type": "uint256"
        }
      ],
      "name": "getHeldNFT",
      "outputs": [
        {
          "internalType": "bool",
          "name": "",
          "type": "bool"
        }
      ],
      "stateMutability": "view",
      "type": "function"
    },
    {
      "inputs": [],
      "name": "goerliChainId",
      "outputs": [
        {
          "internalType": "uint32",
          "name": "",
          "type": "uint32"
        }
      ],
      "stateMutability": "view",
      "type": "function"
    },
    {
      "inputs": [
        {
          "internalType": "address",
          "name": "operator",
          "type": "address"
        },
        {
          "internalType": "address",
          "name": "from",
          "type": "address"
        },
        {
          "internalType": "uint256",
          "name": "tokenId",
          "type": "uint256"
        },
        {
          "internalType": "bytes",
          "name": "data",
          "type": "bytes"
        }
      ],
      "name": "onERC721Received",
      "outputs": [
        {
          "internalType": "bytes4",
          "name": "",
          "type": "bytes4"
        }
      ],
      "stateMutability": "nonpayable",
      "type": "function"
    },
    {
      "inputs": [],
      "name": "owner",
      "outputs": [
        {
          "internalType": "address",
          "name": "",
          "type": "address"
        }
      ],
      "stateMutability": "view",
      "type": "function"
    },
    {
      "inputs": [],
      "name": "polygonChainIdZK",
      "outputs": [
        {
          "internalType": "uint32",
          "name": "",
          "type": "uint32"
        }
      ],
      "stateMutability": "view",
      "type": "function"
    },
    {
      "inputs": [],
      "name": "polygonzkEVMBridgeContractL1",
      "outputs": [
        {
          "internalType": "address",
          "name": "",
          "type": "address"
        }
      ],
      "stateMutability": "view",
      "type": "function"
    },
    {
      "inputs": [],
      "name": "polygonzkEVMBridgeContractL2",
      "outputs": [
        {
          "internalType": "address",
          "name": "",
          "type": "address"
        }
      ],
      "stateMutability": "view",
      "type": "function"
    },
    {
      "inputs": [],
      "name": "renounceOwnership",
      "outputs": [],
      "stateMutability": "nonpayable",
      "type": "function"
    },
    {
      "inputs": [
        {
          "internalType": "uint256",
          "name": "",
          "type": "uint256"
        }
      ],
      "name": "sentPayload",
      "outputs": [
        {
          "internalType": "bytes32",
          "name": "",
          "type": "bytes32"
        }
      ],
      "stateMutability": "view",
      "type": "function"
    },
    {
      "inputs": [
        {
          "internalType": "address",
          "name": "",
          "type": "address"
        }
      ],
      "name": "sisterContract",
      "outputs": [
        {
          "internalType": "address",
          "name": "",
          "type": "address"
        }
      ],
      "stateMutability": "view",
      "type": "function"
    },
    {
      "inputs": [
        {
          "internalType": "uint256",
          "name": "",
          "type": "uint256"
        }
      ],
      "name": "storageSlotsBridgeRequest",
      "outputs": [
        {
          "internalType": "bytes32",
          "name": "",
          "type": "bytes32"
        }
      ],
      "stateMutability": "view",
      "type": "function"
    },
    {
      "inputs": [],
      "name": "totalRequestsSent",
      "outputs": [
        {
          "internalType": "uint256",
          "name": "",
          "type": "uint256"
        }
      ],
      "stateMutability": "view",
      "type": "function"
    },
    {
      "inputs": [
        {
          "internalType": "address",
          "name": "newOwner",
          "type": "address"
        }
      ],
      "name": "transferOwnership",
      "outputs": [],
      "stateMutability": "nonpayable",
      "type": "function"
    }
  ],
  "bytecode": "0x608060405273f6beeebb578e214ca9e23b0e9683454ff88ed2a7600360006101000a81548173ffffffffffffffffffffffffffffffffffffffff021916908373ffffffffffffffffffffffffffffffffffffffff16021790555073f6beeebb578e214ca9e23b0e9683454ff88ed2a7600460006101000a81548173ffffffffffffffffffffffffffffffffffffffff021916908373ffffffffffffffffffffffffffffffffffffffff1602179055507311013a48ad87a528d23cda25d2c34d7dbda6b46b600560006101000a81548173ffffffffffffffffffffffffffffffffffffffff021916908373ffffffffffffffffffffffffffffffffffffffff16021790555060058060146101000a81548163ffffffff021916908363ffffffff1602179055506105a2600560186101000a81548163ffffffff021916908363ffffffff16021790555060006006556000600860146101000a81548160ff0219169083151502179055503480156200017457600080fd5b50604051620024c8380380620024c883398181016040528101906200019a91906200047c565b620001ba620001ae6200037060201b60201c565b6200037860201b60201c565b8060068190555060018114156200029557600360009054906101000a900473ffffffffffffffffffffffffffffffffffffffff16600760006101000a81548173ffffffffffffffffffffffffffffffffffffffff021916908373ffffffffffffffffffffffffffffffffffffffff160217905550600560149054906101000a900463ffffffff16600860156101000a81548163ffffffff021916908363ffffffff160217905550600560189054906101000a900463ffffffff16600860196101000a81548163ffffffff021916908363ffffffff1602179055505b60028114156200036957600460009054906101000a900473ffffffffffffffffffffffffffffffffffffffff16600760006101000a81548173ffffffffffffffffffffffffffffffffffffffff021916908373ffffffffffffffffffffffffffffffffffffffff160217905550600560189054906101000a900463ffffffff16600860156101000a81548163ffffffff021916908363ffffffff160217905550600560149054906101000a900463ffffffff16600860196101000a81548163ffffffff021916908363ffffffff1602179055505b50620004ae565b600033905090565b60008060009054906101000a900473ffffffffffffffffffffffffffffffffffffffff169050816000806101000a81548173ffffffffffffffffffffffffffffffffffffffff021916908373ffffffffffffffffffffffffffffffffffffffff1602179055508173ffffffffffffffffffffffffffffffffffffffff168173ffffffffffffffffffffffffffffffffffffffff167f8be0079c531659141344cd1fd0a4f28419497f9722a3daafe3b4186f6b6457e060405160405180910390a35050565b600080fd5b6000819050919050565b620004568162000441565b81146200046257600080fd5b50565b60008151905062000476816200044b565b92915050565b6000602082840312156200049557620004946200043c565b5b6000620004a58482850162000465565b91505092915050565b61200a80620004be6000396000f3fe608060405234801561001057600080fd5b50600436106101a95760003560e01c806388c6f0f0116100f9578063b5e2a01511610097578063cd803c6511610071578063cd803c65146104e8578063cfb6961614610506578063dff7acef14610524578063f2fde38b14610542576101a9565b8063b5e2a0151461047c578063b6ed4a191461049a578063c8f52a04146104ca576101a9565b806393cf1c7d116100d357806393cf1c7d146103e057806394ea6f21146103fe578063abeae6771461041c578063b2e52d431461044c576101a9565b806388c6f0f0146103745780638da5cb5b146103a45780638e5b11dc146103c2576101a9565b806344eee0c8116101665780635826a171116101405780635826a171146102fe578063598bfa38146103305780636cbadbfa1461034c578063715018a61461036a576101a9565b806344eee0c8146102925780634abf8204146102c2578063503d07eb146102e0576101a9565b80630abccc33146101ae5780630d88e877146101ca5780630e2d7ebf146101fa578063150b7a0214610216578063384e8481146102465780633c784ac414610276575b600080fd5b6101c860048036038101906101c3919061160a565b61055e565b005b6101e460048036038101906101df919061169c565b610562565b6040516101f191906116e2565b60405180910390f35b610214600480360381019061020f919061178b565b61057a565b005b610230600480360381019061022b9190611865565b610697565b60405161023d9190611928565b60405180910390f35b610260600480360381019061025b9190611943565b61090a565b60405161026d919061197f565b60405180910390f35b610290600480360381019061028b9190611943565b61093d565b005b6102ac60048036038101906102a7919061169c565b6109be565b6040516102b991906116e2565b60405180910390f35b6102ca6109d6565b6040516102d791906119a9565b60405180910390f35b6102e86109dc565b6040516102f5919061197f565b60405180910390f35b610318600480360381019061031391906119c4565b610a02565b604051610327939291906119f1565b60405180910390f35b61034a60048036038101906103459190611943565b610a43565b005b610354610afa565b6040516103619190611a37565b60405180910390f35b610372610b10565b005b61038e60048036038101906103899190611a52565b610b24565b60405161039b9190611ac0565b60405180910390f35b6103ac610c29565b6040516103b9919061197f565b60405180910390f35b6103ca610c52565b6040516103d79190611a37565b60405180910390f35b6103e8610c68565b6040516103f59190611a37565b60405180910390f35b610406610c7e565b6040516104139190611a37565b60405180910390f35b61043660048036038101906104319190611a52565b610c94565b60405161044391906116e2565b60405180910390f35b6104666004803603810190610461919061169c565b610ce0565b604051610473919061197f565b60405180910390f35b610484610d13565b604051610491919061197f565b60405180910390f35b6104b460048036038101906104af919061169c565b610d39565b6040516104c1919061197f565b60405180910390f35b6104d2610d6c565b6040516104df919061197f565b60405180910390f35b6104f0610d92565b6040516104fd91906119a9565b60405180910390f35b61050e610d98565b60405161051b919061197f565b60405180910390f35b61052c610dbe565b604051610539919061197f565b60405180910390f35b61055c60048036038101906105579190611943565b610de4565b005b5050565b600b6020528060005260406000206000915090505481565b600160009054906101000a900473ffffffffffffffffffffffffffffffffffffffff1673ffffffffffffffffffffffffffffffffffffffff16632d2c9d9485858585600860199054906101000a900463ffffffff16600860009054906101000a900473ffffffffffffffffffffffffffffffffffffffff1660023060008f6040516020016106089190611afc565b6040516020818303038152906040526040518b63ffffffff1660e01b815260040161063c9a99989796959493929190611c30565b600060405180830381600087803b15801561065657600080fd5b505af115801561066a573d6000803e3d6000fd5b50505050600080600061067c88610a02565b92509250925061068d838383610e68565b5050505050505050565b60008033905060006106aa828888610c94565b905080600e6000600f5481526020019081526020016000208190555086600c6000600f54815260200190815260200160002060006101000a81548173ffffffffffffffffffffffffffffffffffffffff021916908373ffffffffffffffffffffffffffffffffffffffff16021790555033600d6000600f54815260200190815260200160002060006101000a81548173ffffffffffffffffffffffffffffffffffffffff021916908373ffffffffffffffffffffffffffffffffffffffff160217905550803373ffffffffffffffffffffffffffffffffffffffff167fee05a900e71dee4e0e610e4ee878f3eb14ca0ab88a8fae665a66fb8a6cebac8d60405160405180910390a3600f60008154809291906107c590611d09565b91905055506001600960008973ffffffffffffffffffffffffffffffffffffffff1673ffffffffffffffffffffffffffffffffffffffff16815260200190815260200160002060008473ffffffffffffffffffffffffffffffffffffffff1673ffffffffffffffffffffffffffffffffffffffff168152602001908152602001600020600088815260200190815260200160002060006101000a81548160ff021916908315150217905550857f9f511ff5d3ffbc7a0774e43a1c5c183519d2da873aeaea2f12cff2bdad362e5c88336040516108a2929190611d52565b60405180910390a26108f5600860009054906101000a900473ffffffffffffffffffffffffffffffffffffffff16826040516020016108e19190611afc565b60405160208183030381529060405261126a565b63150b7a0260e01b9250505095945050505050565b600a6020528060005260406000206000915054906101000a900473ffffffffffffffffffffffffffffffffffffffff1681565b80600a60003373ffffffffffffffffffffffffffffffffffffffff1673ffffffffffffffffffffffffffffffffffffffff16815260200190815260200160002060006101000a81548173ffffffffffffffffffffffffffffffffffffffff021916908373ffffffffffffffffffffffffffffffffffffffff16021790555050565b600e6020528060005260406000206000915090505481565b600f5481565b600360009054906101000a900473ffffffffffffffffffffffffffffffffffffffff1681565b60008060008060608560001c901c9050600060c060a08760001c901b901c9050600063ffffffff8760001c1690508282829550955095505050509193909250565b610a4b611308565b600860149054906101000a900460ff1615610a9b576040517f08c379a0000000000000000000000000000000000000000000000000000000008152600401610a9290611dfe565b60405180910390fd5b6001600860146101000a81548160ff02191690831515021790555080600860006101000a81548173ffffffffffffffffffffffffffffffffffffffff021916908373ffffffffffffffffffffffffffffffffffffffff16021790555050565b600860159054906101000a900463ffffffff1681565b610b18611308565b610b226000611386565b565b6000600960008573ffffffffffffffffffffffffffffffffffffffff1673ffffffffffffffffffffffffffffffffffffffff1681526020019081526020016000206000600a60008673ffffffffffffffffffffffffffffffffffffffff1673ffffffffffffffffffffffffffffffffffffffff16815260200190815260200160002060009054906101000a900473ffffffffffffffffffffffffffffffffffffffff1673ffffffffffffffffffffffffffffffffffffffff1673ffffffffffffffffffffffffffffffffffffffff168152602001908152602001600020600083815260200190815260200160002060009054906101000a900460ff1690509392505050565b60008060009054906101000a900473ffffffffffffffffffffffffffffffffffffffff16905090565b600560189054906101000a900463ffffffff1681565b600860199054906101000a900463ffffffff1681565b600560149054906101000a900463ffffffff1681565b6000808260208573ffffffffffffffffffffffffffffffffffffffff16901b60608773ffffffffffffffffffffffffffffffffffffffff16901b171760001b9050809150509392505050565b600d6020528060005260406000206000915054906101000a900473ffffffffffffffffffffffffffffffffffffffff1681565b600860009054906101000a900473ffffffffffffffffffffffffffffffffffffffff1681565b600c6020528060005260406000206000915054906101000a900473ffffffffffffffffffffffffffffffffffffffff1681565b600760009054906101000a900473ffffffffffffffffffffffffffffffffffffffff1681565b60065481565b600460009054906101000a900473ffffffffffffffffffffffffffffffffffffffff1681565b600560009054906101000a900473ffffffffffffffffffffffffffffffffffffffff1681565b610dec611308565b600073ffffffffffffffffffffffffffffffffffffffff168173ffffffffffffffffffffffffffffffffffffffff161415610e5c576040517f08c379a0000000000000000000000000000000000000000000000000000000008152600401610e5390611e90565b60405180910390fd5b610e6581611386565b50565b600960008473ffffffffffffffffffffffffffffffffffffffff1673ffffffffffffffffffffffffffffffffffffffff1681526020019081526020016000206000600a60008573ffffffffffffffffffffffffffffffffffffffff1673ffffffffffffffffffffffffffffffffffffffff16815260200190815260200160002060009054906101000a900473ffffffffffffffffffffffffffffffffffffffff1673ffffffffffffffffffffffffffffffffffffffff1673ffffffffffffffffffffffffffffffffffffffff168152602001908152602001600020600082815260200190815260200160002060009054906101000a900460ff161561126457600073ffffffffffffffffffffffffffffffffffffffff16600a60008473ffffffffffffffffffffffffffffffffffffffff1673ffffffffffffffffffffffffffffffffffffffff16815260200190815260200160002060009054906101000a900473ffffffffffffffffffffffffffffffffffffffff1673ffffffffffffffffffffffffffffffffffffffff161415611036576040517f08c379a000000000000000000000000000000000000000000000000000000000815260040161102d90611efc565b60405180910390fd5b600a60008373ffffffffffffffffffffffffffffffffffffffff1673ffffffffffffffffffffffffffffffffffffffff16815260200190815260200160002060009054906101000a900473ffffffffffffffffffffffffffffffffffffffff1673ffffffffffffffffffffffffffffffffffffffff166342842e0e600a60008573ffffffffffffffffffffffffffffffffffffffff1673ffffffffffffffffffffffffffffffffffffffff16815260200190815260200160002060009054906101000a900473ffffffffffffffffffffffffffffffffffffffff1685846040518463ffffffff1660e01b8152600401611131939291906119f1565b600060405180830381600087803b15801561114b57600080fd5b505af115801561115f573d6000803e3d6000fd5b50505050600960008473ffffffffffffffffffffffffffffffffffffffff1673ffffffffffffffffffffffffffffffffffffffff1681526020019081526020016000206000600a60008573ffffffffffffffffffffffffffffffffffffffff1673ffffffffffffffffffffffffffffffffffffffff16815260200190815260200160002060009054906101000a900473ffffffffffffffffffffffffffffffffffffffff1673ffffffffffffffffffffffffffffffffffffffff1673ffffffffffffffffffffffffffffffffffffffff168152602001908152602001600020600082815260200190815260200160002060006101000a81549060ff0219169055611265565b5b505050565b600073f6beeebb578e214ca9e23b0e9683454ff88ed2a790506000600190506000600190508273ffffffffffffffffffffffffffffffffffffffff1663240ff37834848885896040518663ffffffff1660e01b81526004016112cf9493929190611f1c565b6000604051808303818588803b1580156112e857600080fd5b505af11580156112fc573d6000803e3d6000fd5b50505050505050505050565b61131061144a565b73ffffffffffffffffffffffffffffffffffffffff1661132e610c29565b73ffffffffffffffffffffffffffffffffffffffff1614611384576040517f08c379a000000000000000000000000000000000000000000000000000000000815260040161137b90611fb4565b60405180910390fd5b565b60008060009054906101000a900473ffffffffffffffffffffffffffffffffffffffff169050816000806101000a81548173ffffffffffffffffffffffffffffffffffffffff021916908373ffffffffffffffffffffffffffffffffffffffff1602179055508173ffffffffffffffffffffffffffffffffffffffff168173ffffffffffffffffffffffffffffffffffffffff167f8be0079c531659141344cd1fd0a4f28419497f9722a3daafe3b4186f6b6457e060405160405180910390a35050565b600033905090565b6000604051905090565b600080fd5b600080fd5b600073ffffffffffffffffffffffffffffffffffffffff82169050919050565b600061149182611466565b9050919050565b6114a181611486565b81146114ac57600080fd5b50565b6000813590506114be81611498565b92915050565b600080fd5b600080fd5b6000601f19601f8301169050919050565b7f4e487b7100000000000000000000000000000000000000000000000000000000600052604160045260246000fd5b611517826114ce565b810181811067ffffffffffffffff82111715611536576115356114df565b5b80604052505050565b6000611549611452565b9050611555828261150e565b919050565b600067ffffffffffffffff821115611575576115746114df565b5b61157e826114ce565b9050602081019050919050565b82818337600083830152505050565b60006115ad6115a88461155a565b61153f565b9050828152602081018484840111156115c9576115c86114c9565b5b6115d484828561158b565b509392505050565b600082601f8301126115f1576115f06114c4565b5b813561160184826020860161159a565b91505092915050565b600080604083850312156116215761162061145c565b5b600061162f858286016114af565b925050602083013567ffffffffffffffff8111156116505761164f611461565b5b61165c858286016115dc565b9150509250929050565b6000819050919050565b61167981611666565b811461168457600080fd5b50565b60008135905061169681611670565b92915050565b6000602082840312156116b2576116b161145c565b5b60006116c084828501611687565b91505092915050565b6000819050919050565b6116dc816116c9565b82525050565b60006020820190506116f760008301846116d3565b92915050565b611706816116c9565b811461171157600080fd5b50565b600081359050611723816116fd565b92915050565b600080fd5b600081905082602080028201111561174957611748611729565b5b92915050565b600063ffffffff82169050919050565b6117688161174f565b811461177357600080fd5b50565b6000813590506117858161175f565b92915050565b600080600080600061048086880312156117a8576117a761145c565b5b60006117b688828901611714565b95505060206117c78882890161172e565b9450506104206117d988828901611776565b9350506104406117eb88828901611714565b9250506104606117fd88828901611714565b9150509295509295909350565b600080fd5b60008083601f840112611825576118246114c4565b5b8235905067ffffffffffffffff8111156118425761184161180a565b5b60208301915083600182028301111561185e5761185d611729565b5b9250929050565b6000806000806000608086880312156118815761188061145c565b5b600061188f888289016114af565b95505060206118a0888289016114af565b94505060406118b188828901611687565b935050606086013567ffffffffffffffff8111156118d2576118d1611461565b5b6118de8882890161180f565b92509250509295509295909350565b60007fffffffff0000000000000000000000000000000000000000000000000000000082169050919050565b611922816118ed565b82525050565b600060208201905061193d6000830184611919565b92915050565b6000602082840312156119595761195861145c565b5b6000611967848285016114af565b91505092915050565b61197981611486565b82525050565b60006020820190506119946000830184611970565b92915050565b6119a381611666565b82525050565b60006020820190506119be600083018461199a565b92915050565b6000602082840312156119da576119d961145c565b5b60006119e884828501611714565b91505092915050565b6000606082019050611a066000830186611970565b611a136020830185611970565b611a20604083018461199a565b949350505050565b611a318161174f565b82525050565b6000602082019050611a4c6000830184611a28565b92915050565b600080600060608486031215611a6b57611a6a61145c565b5b6000611a79868287016114af565b9350506020611a8a868287016114af565b9250506040611a9b86828701611687565b9150509250925092565b60008115159050919050565b611aba81611aa5565b82525050565b6000602082019050611ad56000830184611ab1565b92915050565b6000819050919050565b611af6611af1826116c9565b611adb565b82525050565b6000611b088284611ae5565b60208201915081905092915050565b611b24610400838361158b565b5050565b6000819050919050565b6000819050919050565b6000611b57611b52611b4d84611b28565b611b32565b61174f565b9050919050565b611b6781611b3c565b82525050565b6000819050919050565b6000611b92611b8d611b8884611b6d565b611b32565b611666565b9050919050565b611ba281611b77565b82525050565b600081519050919050565b600082825260208201905092915050565b60005b83811015611be2578082015181840152602081019050611bc7565b83811115611bf1576000848401525b50505050565b6000611c0282611ba8565b611c0c8185611bb3565b9350611c1c818560208601611bc4565b611c25816114ce565b840191505092915050565b600061052082019050611c46600083018d611b17565b611c5461040083018c611a28565b611c6261042083018b6116d3565b611c7061044083018a6116d3565b611c7e610460830189611a28565b611c8c610480830188611970565b611c9a6104a0830187611b5e565b611ca86104c0830186611970565b611cb66104e0830185611b99565b818103610500830152611cc98184611bf7565b90509b9a5050505050505050505050565b7f4e487b7100000000000000000000000000000000000000000000000000000000600052601160045260246000fd5b6000611d1482611666565b91507fffffffffffffffffffffffffffffffffffffffffffffffffffffffffffffffff821415611d4757611d46611cda565b5b600182019050919050565b6000604082019050611d676000830185611970565b611d746020830184611970565b9392505050565b600082825260208201905092915050565b7f4120636f6e7472616374206973206120636f6e7472616374206973206120636f60008201527f6e74726163742100000000000000000000000000000000000000000000000000602082015250565b6000611de8602783611d7b565b9150611df382611d8c565b604082019050919050565b60006020820190508181036000830152611e1781611ddb565b9050919050565b7f4f776e61626c653a206e6577206f776e657220697320746865207a65726f206160008201527f6464726573730000000000000000000000000000000000000000000000000000602082015250565b6000611e7a602683611d7b565b9150611e8582611e1e565b604082019050919050565b60006020820190508181036000830152611ea981611e6d565b9050919050565b7f6e6f2073697374657220636f6e74726163742073706563696669656421000000600082015250565b6000611ee6601d83611d7b565b9150611ef182611eb0565b602082019050919050565b60006020820190508181036000830152611f1581611ed9565b9050919050565b6000608082019050611f316000830187611a28565b611f3e6020830186611970565b611f4b6040830185611ab1565b8181036060830152611f5d8184611bf7565b905095945050505050565b7f4f776e61626c653a2063616c6c6572206973206e6f7420746865206f776e6572600082015250565b6000611f9e602083611d7b565b9150611fa982611f68565b602082019050919050565b60006020820190508181036000830152611fcd81611f91565b905091905056fea2646970667358221220d4a846cc6a8a3ba8188f168f831aff053ec40ed2a71a2b4b3a054f7c3b4803c164736f6c63430008090033",
  "linkReferences": {},
  "deployedLinkReferences": {}
}